:100000000C9462000C948A000C948A000C948A0070
:100010000C948A000C948A000C948A000C948A0038
:100020000C948A000C948A000C948A000C948A0028
:100030000C948A000C948A000C948A000C948A0018
:100040000C9440060C948A000C940E060C94E8055F
:100050000C948A000C948A000C948A000C948A00F8
:100060000C948A000C948A000000000024002700F1
:100070002A0000000000250028002B0000000008D6
:10008000000201000003040700000000000000005F
:1000900000000000230026002900040404040404D6
:1000A0000404020202020202030303030303010227
:1000B00004081020408001020408102001020408F6
:1000C00010208A0611241FBECFEFD8E0DEBFCDBFBF
:1000D00022E0A4E7B1E001C01D92AE37B207E1F71C
:1000E00011E0A0E0B1E0E0E8F6E102C005900D9279
:1000F000A437B107D9F710E0C2E6D0E004C02197D9
:10010000FE010E94330BC136D107C9F70E94E906F0
:100110000C943E0B0C940000E7E8F1E0A089B18953
:1001200082E08C93A485B5851C92A685B7858FEC5B
:100130008C93108EA489B58986E08C93A289B389AB
:100140008C9180618C93A289B3898C9188608C9307
:10015000A289B3898C9180688C930288F389E02D01
:1001600080818F7D80830895CF92DF92EF92FF92FE
:100170000F931F932FB7F894C0908301D090840100
:10018000E0908501F09086012FBFDC01CB018C0D42
:100190009D1DAE1DBF1D4FB7F894009183011091B6
:1001A000840120918501309186014FBF0C151D05FA
:1001B0002E053F0528F080179107A207B30758F7CF
:1001C0001F910F91FF90EF90DF90CF9008958F9245
:1001D0009F92AF92BF92CF92DF92EF92FF92CF9316
:1001E000DF93A0917302882311F03A2F01C030E011
:1001F0008091740290E0880F991F80579F4FC090A4
:100200007902D0907A02E0907B02F0907C0240E08C
:1002100050E0BA01FC01C591D49128812A2323130F
:1002200014C04A015B012FEF821A920AA20AB20A95
:100230004C155D056E057F0518F4B501A401EACFE4
:1002400030E020E080E090E003C0342F252FCB0188
:10025000632F722FDF91CF91FF90EF90DF90CF90BF
:10026000BF90AF909F908F900895CF92DF92EF92C2
:10027000FF920F931F93CF93DF936C017A018B0151
:10028000C0E0D0E0CE15DF0581F0D8016D918D0181
:10029000D601ED91FC910190F081E02DC601099508
:1002A000892B11F02196EECF7E01C701DF91CF910E
:1002B0001F910F91FF90EF90DF90CF9008950895D8
:1002C00080E090E00895FC01538D448D252F30E0AF
:1002D000842F90E0821B930B541710F0CF96089553
:1002E00001970895FC01918D828D981761F0828DA0
:1002F000DF01A80FB11D5D968C91928D9F5F9F735A
:10030000928F90E008958FEF9FEF0895FC01918DFB
:10031000828D981731F0828DE80FF11D858D90E068
:1003200008958FEF9FEF0895FC01918D228D892F05
:1003300090E0805C9F4F821B91098F7399270895ED
:1003400087E891E00E94940121E0892B09F420E0E4
:10035000822F0895FC01848DDF01A80FB11DA35ADF
:10036000BF4F2C91848D90E001968F739927848FD5
:10037000A689B7892C93A089B1898C9183708064F8
:100380008C93938D848D981306C00288F389E02D99
:1003900080818F7D80830895EF92FF920F931F934A
:1003A000CF93DF93EC0181E0888F9B8D8C8D981328
:1003B00005C0E889F989808185FD26C0F62E0B8D60
:1003C00010E00F5F1F4F0F731127E02E8C8DE81286
:1003D0000CC00FB607FCFACFE889F989808185FF48
:1003E000F5CFCE010E94AA01F1CF8B8DFE01E80F5F
:1003F000F11DE35AFF4FF0829FB7F8940B8FEA8903
:10040000FB89808180620AC09FB7F894EE89FF89DA
:100410006083E889F98980818370806480839FBFCD
:1004200081E090E0DF91CF911F910F91FF90EF90CD
:100430000895CF93DF93EC01888D8823C9F0EA8972
:10044000FB89808185FD05C0A889B9898C9186FDCD
:100450000FC00FB607FCF5CF808185FFF2CFA889CA
:10046000B9898C9185FFEDCFCE010E94AA01E7CF1B
:10047000DF91CF91089580E090E0892B29F00E94D0
:10048000A00181110C9400000895833081F028F4BC
:10049000813099F08230A1F008958730A9F088303A
:1004A000B9F08430D1F4809180008F7D03C08091B9
:1004B00080008F7780938000089584B58F7702C085
:1004C00084B58F7D84BD08958091B0008F7703C07F
:1004D0008091B0008F7D8093B00008951F93CF93DB
:1004E000DF93282F30E0F901E458FF4F8491F901A0
:1004F000E255FF4FD491F901E656FF4FC491CC234A
:10050000C1F0162F81110E944502EC2FF0E0EE0F92
:10051000FF1FEE58FF4FA591B4919FB7F8941111AA
:1005200004C08C91D095D82302C0EC91DE2BDC93D3
:100530009FBFDF91CF911F910895CF93DF9390E0FC
:10054000FC01E255FF4F2491FC01E656FF4F8491D8
:10055000882361F190E0880F991FFC01E859FF4F53
:10056000C591D491FC01EE58FF4FA591B491611152
:1005700009C09FB7F8948881209582238883EC91E5
:100580002E230BC0623061F49FB7F8948881322F1C
:10059000309583238883EC912E2B2C939FBF06C02C
:1005A0008FB7F894E8812E2B28838FBFDF91CF91EE
:1005B00008951F93CF93DF93182FEB0161E00E9402
:1005C0009D02209711F460E004C0CF3FD10539F4BB
:1005D00061E0812FDF91CF911F910C946E02E12F8A
:1005E000F0E0E458FF4FE491E330F9F048F4E130F3
:1005F000B9F0E230A1F584B5806284BDC8BD34C0D5
:10060000E730E9F0E83019F1E43049F580918000F5
:10061000806280938000D0938B00C0938A0024C0B6
:1006200084B5806884BDC7BD1FC08091800080688C
:1006300080938000D0938900C093880015C080917A
:10064000B00080688093B000C093B3000DC080916B
:10065000B00080628093B000C093B40005C0C03881
:10066000D1050CF0B5CFAFCFDF91CF911F91089599
:100670003FB7F8948091750190917601A091770130
:10068000B091780126B5A89B05C02F3F19F00196BF
:10069000A11DB11D3FBFBA2FA92F982F8827820F08
:1006A000911DA11DB11DBC01CD0142E0660F771F58
:1006B000881F991F4A95D1F708958F929F92AF9204
:1006C000BF92CF92DF92EF92FF926B017C010E946A
:1006D00038034B015C01C114D104E104F104F1F0D1
:1006E0000E943803DC01CB0188199909AA09BB09CA
:1006F000883E9340A105B10570F321E0C21AD108EC
:10070000E108F10888EE880E83E0981EA11CB11C58
:10071000C114D104E104F10419F7DDCFFF90EF908B
:10072000DF90CF90BF90AF909F908F900895CF9221
:10073000DF92EF92FF920F931F93CF93DF93CDB78A
:10074000DEB7C054D1400FB6F894DEBF0FBECDBFA8
:100750002FB7F8948091830190918401A091850135
:10076000B09186012FBF4091750250917602609141
:100770007702709178028C019D01041B150B260BEA
:10078000370BB901A801403D57406105710518F4C8
:1007900080917D02BCC08093750290937602A093F5
:1007A0007702B09378021092700210926F0210924A
:1007B0006E0210926D0210926C0261E080917102E3
:1007C0000E946E026AEF70E080E090E00E945D039C
:1007D00061E0809171020E949D0260E0809171024F
:1007E0000E946E0264E170E080E090E00E945D0390
:1007F000F89461E0809171020E946E028BE990E0B2
:100800000197F1F762E0809171020E949D0283E2FC
:1008100090E00197F1F780E00E94E700672B682BDA
:10082000692B21F410927D0278943EC081E00E94F1
:10083000E700672B682B692BA9F38E010F5F1F4F11
:100840006E012FEBC21A2EEFD20A780180E00E94CF
:10085000E700F701608371838283938381E00E94C4
:10086000E700F7016483758386839783F8E0EF0ED2
:10087000F11CEC14FD0451F7789420E030E0F8010D
:10088000C080D180E280F380448155816681778188
:10089000C114D104E104F10429F0411551056105A9
:1008A000710521F410927D0280E031C0F90183E0EE
:1008B000F595E7958A95E1F7E459FD4F8081880F1A
:1008C000C416D506E606F70608F4816080832F5F1C
:1008D0003F4F085F1F4F2832310589F62091700283
:1008E00030E040916C0280916D0290E0840F911D88
:1008F00040916E02840F911D40916F02840F911DF3
:1009000099272817390771F681E080937D02C05C32
:10091000DE4F0FB6F894DEBF0FBECDBFDF91CF9193
:100920001F910F91FF90EF90DF90CF900895611588
:10093000710579F0FB0101900020E9F73197AF01D3
:10094000461B570BDC01ED91FC910280F381E02DF9
:10095000099480E090E00895CF93DF93BC0187E88D
:1009600091E00E949704EC016DE271E087E891E06C
:100970000E9497048C0F9D1FDF91CF9108952F92B5
:100980003F924F925F926F927F928F929F92AF921F
:10099000BF92CF92DF92EF92FF920F931F93CF936C
:1009A000DF93CDB7DEB7A4970FB6F894DEBF0FBEC6
:1009B000CDBF4B015C01F42E9B01AC010E942E0BBC
:1009C000882319F062E171E027C024013501E89421
:1009D00077F82FEF3FEF4FE75FE7C301B2010E94C7
:1009E0002E0B81110DC02FEF3FEF4FE75FE7C301E3
:1009F000B2010E94D50818161CF466E171E00CC023
:100A00002FEF3FEF4FE75FE4C501B4010E94290BD0
:100A100018163CF46AE171E087E891E00E949704BF
:100A2000BCC02FEF3FEF4FE75FECC501B4010E9460
:100A3000D50887FDEFCF20E030E0A901C501B40162
:100A40000E94D50887FF0BC06DE287E891E00E9405
:100A5000CC013C01B7FAB094B7F8B09402C0612C55
:100A6000712C10E060E070E080E09FE3F11641F04F
:100A700020E030E040E251E40E94880A1F5FF6CF98
:100A8000A50194010E941C0A4B015C010E94FA0A14
:100A90006AA3C72ED82EE92E19A2262F372F482F4A
:100AA000592F8E010F5D1F4F0BA31CA39AE0292E17
:100AB000312C412C512CCA01B901A20191010E9493
:100AC000F909605DF80162938F0121153105410537
:100AD000510589F7BF0187E891E00E9497048301DF
:100AE000080F191FFF2009F457C06AA17C2D8D2D16
:100AF0009E2D0E94DA089B01AC01C501B4010E9441
:100B00001B0A4B015C016EE287E891E00E94CC0178
:100B1000080F191F8AE0282E312C412C512C20E07F
:100B200030E040E251E4C501B4010E943B094B01B1
:100B30005C010E94FA0A9B0140E050E019A2CBA0A0
:100B4000DCA0762E3AA3642EE52ECA01B901A201DB
:100B500091010E94F909605DF60162936F01211510
:100B600031054105510589F7BF0187E891E00E94F1
:100B70009704080F191F672D7AA1862D9E2D0E94BC
:100B8000DA089B01AC01C501B4010E941B0A4B01AC
:100B90005C01FA94F110C3CFC801A4960FB6F89483
:100BA000DEBF0FBECDBFDF91CF911F910F91FF90A0
:100BB000EF90DF90CF90BF90AF909F908F907F90FD
:100BC0006F905F904F903F902F9008950E94390B47
:100BD0001F920F920FB60F9211242F933F934F93B2
:100BE0005F936F937F938F939F93AF93BF93EF9395
:100BF000FF9387E891E00E94AA01FF91EF91BF91D6
:100C0000AF919F918F917F916F915F914F913F91A4
:100C10002F910F900FBE0F901F9018951F920F925B
:100C20000FB60F9211242F938F939F93EF93FF93FF
:100C3000E0919701F09198018081E0919D01F09100
:100C40009E0182FD12C090818091A0018F5F8F7301
:100C50002091A101821751F0E091A001F0E0E95745
:100C6000FE4F958F8093A00101C08081FF91EF918D
:100C70009F918F912F910F900FBE0F901F901895FD
:100C80001F920F920FB60F9211242F933F938F93C1
:100C90009F93AF93BF938091830190918401A09122
:100CA0008501B09186013091740123E0230F2D3727
:100CB00020F40196A11DB11D05C026E8230F029660
:100CC000A11DB11D20937401809383019093840131
:100CD000A0938501B0938601809175019091760172
:100CE000A0917701B09178010196A11DB11D80936B
:100CF000750190937601A0937701B0937801BF912D
:100D0000AF919F918F913F912F910F900FBE0F90B8
:100D10001F901895E7E8F1E01382128288EE93E0C5
:100D2000A0E0B0E084839583A683B78384E091E05C
:100D30009183808385EC90E09587848784EC90E0B4
:100D40009787868780EC90E0918B808B81EC90E098
:100D5000938B828B82EC90E0958B848B86EC90E079
:100D6000978B868B118E128E138E148EE4E2F2E036
:100D700016821782108611861286138614861586AF
:100D800016861786108A118A128A138A148A158A7F
:100D9000ACE6B2E087E015968C93159786E116963F
:100DA0008C931697E5EBF0E0E4911796EC93179788
:100DB000E1EAF0E0E4911896EC93189740E85EE3DE
:100DC00060E070E01D964D935D936D937C9350971A
:100DD0000895789484B5826084BD84B5816084BDB3
:100DE00085B5826085BD85B5816085BD80916E00C9
:100DF000816080936E0010928100809181008260FA
:100E00008093810080918100816080938100809136
:100E100080008160809380008091B1008460809325
:100E2000B1008091B00081608093B00080917A0021
:100E3000846080937A0080917A00826080937A0047
:100E400080917A00816080937A0080917A00806836
:100E500080937A001092C100109268021092690289
:100E600010926A0210926B021092260210922702D0
:100E7000109228021092290268EB7BE080E090E05B
:100E80000E94B40087E891E0909367028093660225
:100E90000E948C002FB7F894809183019091840177
:100EA000A0918501B09186012FBF80932602909377
:100EB0002702A0932802B09329026EE171E080918D
:100EC0006602909167020E9497046AE070E080E0F9
:100ED00090E00E94B40081E080933A020E948C006E
:100EE00061E086E00E949D0261E08AE00E949D022E
:100EF00061E085E00E949D0260E08BE00E949D021F
:100F000062E0809171020E949D0280E398EFAFEF52
:100F1000BFEF8093750290937602A0937702B0930F
:100F2000780247E8242E40E0342EC9EBD0E005EAF1
:100F300010E050E4C52EEE24EA94F12C60ED77E049
:100F400080E090E00E945D030E949703882399F15E
:100F5000809172028B3029F170F18551823058F501
:100F600060916C0270E080E090E00E94DA0820E07E
:100F700030E040E853E40E943B094B015C01609182
:100F80006D0270E080E090E00E94DC08A501940111
:100F90000E941C0A2DEC3CEC4CEC5DE30E943B09EA
:100FA00007C060916C0270E080E090E00E94DA0877
:100FB0002B013C0106C0412C512C30EC632E3FE745
:100FC000732E40927F015092800160928101709255
:100FD00082010E9497038823F1F1809172028B3085
:100FE00029F0C8F18551823058F035C060916E0209
:100FF00070E080E090E00E94DA084B015C0131C0B3
:10100000D0906E026D2D6F7770E080E090E00E94CE
:10101000DC0820E030E040E853E40E943B094B014B
:101020005C0160916F0270E080E090E00E94DC085B
:10103000A50194010E941C0A2DEC3CEC4CEC5DE3F4
:101040000E943B094B015C01D7FE0BC0B7FAB0947C
:10105000B7F8B09406C0812C912C20ECA22E2FE77B
:10106000B22E80927B0190927C01A0927D01B09281
:101070007E01A3019201C301B2010E942E0B8111D6
:1010800008C0A5019401C501B4010E942E0B88235C
:1010900039F080E391E00E94AC040E943B024ECF05
:1010A00080E591E00E94AC0460917F017091800125
:1010B000809181019091820142E00E94BF046BE522
:1010C00071E087E891E00E9497048FE591E00E942B
:1010D000AC0460917B0170917C0180917D019091C5
:1010E0007E0142E00E94BF046DE671E087E891E076
:1010F0000E949704F1018491FE01D490F801B4900C
:10110000BB2009F442C081110E944502EB2DF0E0A2
:10111000EE0FFF1FE057FF4FA591B4918C91D8229D
:10112000A1F1C0927C0080917A00806480937A0063
:1011300080917A0086FDFCCF6091780080917900E3
:1011400070E0782B77FF02C06D5F7F4F5B01B59435
:10115000A794B594A794B0927A01A0927901B701AF
:101160006A197B098AE00E94D902B50185E00E94D4
:10117000D90260E070E086E00E94D90268EC70E07D
:1011800080E090E00E945D0388CF60E070E08AE03C
:101190000E94D90260E070E085E00E94D90260E020
:1011A00070E086E00E94D90278CF0E94170908F407
:1011B00081E00895E89409C097FB3EF490958095EE
:1011C000709561957F4F8F4F9F4F9923A9F0F92F0D
:1011D00096E9BB279395F695879577956795B7958B
:1011E000F111F8CFFAF4BB0F11F460FF1BC06F5F71
:1011F0007F4F8F4F9F4F16C0882311F096E911C083
:10120000772321F09EE8872F762F05C0662371F0A3
:1012100096E8862F70E060E02AF09A95660F771FB7
:10122000881FDAF7880F9695879597F90895990F93
:101230000008550FAA0BE0E8FEEF16161706E807A0
:10124000F907C0F012161306E407F50798F0621BC1
:10125000730B840B950B39F40A2661F0232B242B96
:10126000252B21F408950A2609F4A140A6958FEFB5
:10127000811D811D08950E944E090C94BF090E9492
:10128000B10938F00E94B80920F0952311F00C94B0
:10129000A8090C94AE0911240C94F3090E94D009FA
:1012A00070F3959FC1F3950F50E0551F629FF001B9
:1012B000729FBB27F00DB11D639FAA27F00DB11DD2
:1012C000AA1F649F6627B00DA11D661F829F22275B
:1012D000B00DA11D621F739FB00DA11D621F839FE2
:1012E000A00D611D221F749F3327A00D611D231FB8
:1012F000849F600D211D822F762F6A2F11249F5706
:1013000050409AF0F1F088234AF0EE0FFF1FBB1F08
:10131000661F771F881F91505040A9F79E3F5105C7
:1013200080F00C94A8090C94F3095F3FE4F3983E15
:10133000D4F3869577956795B795F795E7959F5F71
:10134000C1F7FE2B880F911D9695879597F9089503
:1013500097F99F6780E870E060E008959FEF80EC68
:10136000089500240A94161617061806090608950B
:1013700000240A9412161306140605060895092E71
:101380000394000C11F4882352F0BB0F40F4BF2BE0
:1013900011F460FF04C06F5F7F4F8F4F9F4F089520
:1013A00057FD9058440F551F59F05F3F71F0479516
:1013B000880F97FB991F61F09F3F79F087950895FB
:1013C000121613061406551FF2CF4695F1DF08C01A
:1013D000161617061806991FF1CF86957105610537
:1013E00008940895E894BB2766277727CB0197F9DF
:1013F0000895A1E21A2EAA1BBB1BFD010DC0AA1F56
:10140000BB1FEE1FFF1FA217B307E407F50720F06D
:10141000A21BB30BE40BF50B661F771F881F991FE8
:101420001A9469F760957095809590959B01AC0131
:10143000BD01CF0108955058BB27AA270E94330A47
:101440000C94BF090E94B10938F00E94B80920F03D
:1014500039F49F3F19F426F40C94AE090EF4E0958C
:10146000E7FB0C94A809E92F0E94D00958F3BA179A
:10147000620773078407950720F079F4A6F50C94AA
:10148000F2090EF4E0950B2EBA2FA02D0B01B90135
:1014900090010C01CA01A0011124FF27591B99F0EA
:1014A000593F50F4503E68F11A16F040A22F232FF6
:1014B000342F4427585FF3CF469537952795A79546
:1014C000F0405395C9F77EF41F16BA0B620B730BED
:1014D000840BBAF09150A1F0FF0FBB1F661F771F5E
:1014E000881FC2F70EC0BA0F621F731F841F48F413
:1014F000879577956795B795F7959E3F08F0B0CF9C
:101500009395880F08F09927EE0F97958795089582
:101510000E949C0A0C94BF090E94B80958F00E94CE
:10152000B10940F029F45F3F29F00C94A80951114A
:101530000C94F3090C94AE090E94D00968F3992326
:10154000B1F3552391F3951B550BBB27AA276217BF
:101550007307840738F09F5F5F4F220F331F441FCC
:10156000AA1FA9F335D00E2E3AF0E0E832D0915000
:101570005040E695001CCAF72BD0FE2F29D0660FED
:10158000771F881FBB1F261737074807AB07B0E830
:1015900009F0BB0B802DBF01FF2793585F4F3AF036
:1015A0009E3F510578F00C94A8090C94F3095F3F15
:1015B000E4F3983ED4F3869577956795B795F795BC
:1015C0009F5FC9F7880F911D9695879597F90895A4
:1015D000E1E0660F771F881FBB1F62177307840740
:1015E000BA0720F0621B730B840BBA0BEE1F88F74F
:1015F000E09508950E94D80988F09F5798F0B92F78
:101600009927B751B0F0E1F0660F771F881F991F37
:101610001AF0BA95C9F714C0B13091F00E94F209DE
:10162000B1E008950C94F209672F782F8827B85FEE
:1016300039F0B93FCCF3869577956795B395D9F78F
:101640003EF490958095709561957F4F8F4F9F4F99
:1016500008950E94170908F48FEF08950E94170952
:10166000880B990B0895EE0FFF1F0590F491E02D64
:10167000099481E090E0F8940C943E0BF894FFCF2D
:1016800000000000CC0135016301190294017201D0
:1016900086016E616E00696E66006F766600564D5B
:1016A0004450565F317C315F564D4450560D0A0010
:1016B0004661696C656420746F20726561642066A0
:1016C000726F6D204448542073656E736F722100F1
:1016D000556D69646974C3A03A200020250900543F
:1016E000656D70657261747572613A200020C2B0D8
:0416F0004320000093
:00000001FF
