:100000000C9463000C948B000C948B000C94AF0444
:100010000C94AF040C94AF040C948B000C948B00E4
:100020000C948B000C948B000C948B000C948B0024
:100030000C948B000C948B000C948B000C948B0014
:100040000C9465040C948B000C945D010C943701A6
:100050000C948B000C948B000C948B000C948B00F4
:100060000C94BF050C948B000000000800020100F6
:100070000003040700000000000000000000000072
:10008000240027002A000000000023002600290089
:1000900000000000250028002B00040404040404D0
:1000A0000404020202020202030303030303010227
:1000B00004081020408001020408102001020408F6
:1000C0001020000EDE0D11241FBECFEFD8E0DEBFE2
:1000D000CDBF23E0AAEBB1E001C01D92A93DB2075C
:1000E000E1F711E0A0E0B1E0ECE2F8E202C0059037
:1000F0000D92AA3BB107D9F710E0C2E6D0E004C0E8
:100100002197FE010E94FE11C136D107C9F70E9456
:100110003C0A0C9409140C940000FC01538D448D8E
:10012000252F30E0842F90E0821B930B541710F0A2
:10013000CF96089501970895FC01918D828D9817AF
:1001400061F0828DDF01A80FB11D5D968C91928DBB
:100150009F5F9F73928F90E008958FEF9FEF0895B8
:10016000FC01918D828D981731F0828DE80FF11D81
:10017000858D90E008958FEF9FEF089581EA92E0DA
:100180000E948F0121E0892B09F420E0822F08953D
:10019000EF92FF920F931F93CF93DF93EC0181E0D7
:1001A000888F9B8D8C8D981305C0E889F989808193
:1001B00085FD26C0F62E0B8D10E00F5F1F4F0F73CD
:1001C0001127E02E8C8DE8120CC00FB607FCFACF79
:1001D000E889F989808185FFF5CFCE010E94160359
:1001E000F1CF8B8DFE01E80FF11DE35AFF4FF08236
:1001F0009FB7F8940B8FEA89FB89808180620AC0DF
:100200009FB7F894EE89FF896083E889F989808136
:100210008370806480839FBF81E090E0DF91CF9105
:100220001F910F91FF90EF900895CF93DF93EC0112
:10023000888D8823C9F0EA89FB89808185FD05C006
:10024000A889B9898C9186FD0FC00FB607FCF5CF40
:10025000808185FFF2CFA889B9898C9185FFEDCF88
:10026000CE010E941603E7CFDF91CF9108951F9230
:100270000F920FB60F9211242F933F934F935F93DA
:100280006F937F938F939F93AF93BF93EF93FF935E
:1002900081EA92E00E941603FF91EF91BF91AF9126
:1002A0009F918F917F916F915F914F913F912F918E
:1002B0000F900FBE0F901F9018951F920F920FB6C0
:1002C0000F9211242F938F939F93EF93FF93E091BD
:1002D000B102F091B2028081E091B702F091B802D0
:1002E00082FD12C090818091BA028F5F8F7320913E
:1002F000BB02821751F0E091BA02F0E0EF55FD4FDA
:10030000958F8093BA0201C08081FF91EF919F91F8
:100310008F912F910F900FBE0F901F901895FC0199
:10032000918D228D892F90E0805C9F4F821B9109D7
:100330008F739927089580E090E0892B29F00E941F
:10034000BE0081110C94000008953FB7F89480918D
:10035000990290919A02A0919B02B0919C0226B5BD
:10036000A89B05C02F3F19F00196A11DB11D3FBFED
:10037000BA2FA92F982F8827820F911DA11DB11D7B
:10038000BC01CD0142E0660F771F881F991F4A9577
:10039000D1F708952091BC013091BD01281739078C
:1003A00071F49091BA018091BB01981741F0E091EE
:1003B000BA01F0E0E85AFD4F808190E008958FEF98
:1003C0009FEF089508951F93CF93DF93DC015C9610
:1003D0008D919C915D97009739F421E030E0139660
:1003E0003C932E9312973BC05196ED91FC915297FE
:1003F00050962C915097322F30951FB75E964C91A6
:100400005E97742F727041FD6095F8944081772358
:1004100011F0422B01C043234083EC012197F1F7F7
:1004200048E0508160FF02C0522B01C0532350832B
:10043000EC012197F1F76695415099F78081772378
:1004400019F08323808302C0282B20831FBF5C9672
:100450008D919C915D970197F1F781E090E0DF919C
:10046000CF911F9108952091BC013091BD012817B3
:10047000390771F48091BB012091BA0190E0805C52
:100480009F4F821B910960E470E00E94D61108958D
:1004900080E090E008952091BC013091BD012817C3
:1004A0003907B9F49091BA018091BB01981789F08E
:1004B000E091BA01F0E0E85AFD4F80812091BA0145
:1004C00030E02F5F3F4F2F7333272093BA0190E026
:1004D00008958FEF9FEF089585ED8093BC00809184
:1004E000BC0084FDFCCF1092C0010895613298F4E5
:1004F0002091C001243089F46093EF01282FAFECE4
:10050000B1E0FC018E2F821B861718F481918D9328
:10051000F9CF80E0089581E0089582E0089581E0B8
:1005200090E03091C4012091C301321710F480E0B3
:1005300090E091958195910908958091C4019091E1
:10054000C301891730F48F5F8093C40180E090E08D
:1005500008958FEF9FEF08958091C30190E020915F
:10056000C401821B91090895CF92DF92EF92FF920E
:100570000F931F93CF93DF937C01CB018A012091CE
:100580003602222389F0EB016B01C40ED51ECC1577
:10059000DD0569F06991D701ED91FC910190F08141
:1005A000E02DC7010995F3CF642F0E947602C801A0
:1005B000DF91CF911F910F91FF90EF90DF90CF903F
:1005C0000895CF93DF931F92CDB7DEB76983209153
:1005D00036022223D1F02091C101203240F021E0E7
:1005E00030E0FC013383228380E090E015C08091ED
:1005F000C201E82FF0E0E95CFD4F998190838F5FA5
:100600008093C2018093C10105C061E0CE010196D3
:100610000E94760281E090E00F90DF91CF910895E3
:10062000089580E090E008950E94EB13FC01848D12
:10063000DF01A80FB11DA35ABF4F2C91848D90E00C
:1006400001968F739927848FA689B7892C93A089E7
:10065000B1898C91837080648C93938D848D981371
:1006600006C00288F389E02D80818F7D8083089504
:10067000833081F028F4813099F08230A1F0089520
:100680008730A9F08830B9F08430D1F480918000AF
:100690008F7D03C0809180008F77809380000895C4
:1006A00084B58F7702C084B58F7D84BD0895809115
:1006B000B0008F7703C08091B0008F7D8093B00031
:1006C00008951F93CF93DF93282F30E0F901E85965
:1006D000FF4F8491F901E255FF4FD491F901E6569D
:1006E000FF4FC491CC23C1F0162F81110E94380313
:1006F000EC2FF0E0EE0FFF1FE057FF4FA591B491F4
:100700009FB7F894111104C08C91D095D82302C0E2
:10071000EC91DE2BDC939FBFDF91CF911F91089569
:10072000CF93DF9390E0FC01E255FF4F2491FC0151
:10073000E656FF4F8491882361F190E0880F991F5E
:10074000FC01E458FF4FC591D491FC01E057FF4FE5
:10075000A591B491611109C09FB7F8948881209543
:1007600082238883EC912E230BC0623061F49FB703
:10077000F8948881322F309583238883EC912E2B37
:100780002C939FBF06C08FB7F894E8812E2B288347
:100790008FBFDF91CF9108951F93CF93DF93182FD1
:1007A000EB0161E00E949003209711F460E004C027
:1007B000CF3FD10539F461E0812FDF91CF911F91B7
:1007C0000C946103E12FF0E0E859FF4FE491E3302E
:1007D000F9F048F4E130B9F0E230A1F584B5806277
:1007E00084BDC8BD34C0E730E9F0E83019F1E43029
:1007F00049F580918000806280938000D0938B00C7
:10080000C0938A0024C084B5806884BDC7BD1FC062
:1008100080918000806880938000D0938900C0938D
:10082000880015C08091B00080688093B000C093AC
:10083000B3000DC08091B00080628093B000C0937F
:10084000B40005C0C038D1050CF0B5CFAFCFDF91F3
:10085000CF911F9108958F929F92AF92BF92CF92A6
:10086000DF92EF92FF926B017C010E94A5014B0188
:100870005C01C114D104E104F104F1F00E94A5016E
:10088000DC01CB0188199909AA09BB09883E93406C
:10089000A105B10570F321E0C21AD108E108F10801
:1008A00088EE880E83E0981EA11CB11CC114D104EF
:1008B000E104F10419F7DDCFFF90EF90DF90CF90C6
:1008C000BF90AF909F908F9008951F920F920FB698
:1008D0000F9211242F933F938F939F93AF93BF93C6
:1008E00080919D0290919E02A0919F02B091A002E2
:1008F0003091980223E0230F2D3720F40196A11D9B
:10090000B11D05C026E8230F0296A11DB11D20933D
:10091000980280939D0290939E02A0939F02B093B1
:10092000A0028091990290919A02A0919B02B091AD
:100930009C020196A11DB11D8093990290939A0289
:10094000A0939B02B0939C02BF91AF919F918F9116
:100950003F912F910F900FBE0F901F9018951F92EF
:100960000F920FB60F9211242F933F934F935F93E3
:100970006F937F938F939F93AF93BF93EF93FF9367
:10098000E091BC01F091BD01309709F451C0968D02
:10099000A685B785858591FF04C09C91892329F49C
:1009A00047C09C91892309F043C0A389B4899C91D5
:1009B0008589809589238C93868997890197F1F79A
:1009C000608D718DA685B785558538E020E0CB0117
:1009D0000197F1F7822F90E095958795282F4C91FC
:1009E000452309F02068315091F7868D81FD2095CF
:1009F0008091BB0190E001968F7399273091BA01E5
:100A0000381749F0A091BB01B0E0A85ABD4F2C9314
:100A10008093BB0103C0868D8160868F828D938D0C
:100A20000197F1F7A389B4899C918589892B8C93CF
:100A3000FF91EF91BF91AF919F918F917F916F91B6
:100A40005F914F913F912F910F900FBE0F901F908C
:100A50001895CF93FC01C48121E020933602C09306
:100A600057021092C2011092C1018385682B86E85B
:100A700093E00E94E1029091C101913208F041C0DF
:100A80008091C0018111FCCF82E08093C00181E0A0
:100A90008093BF018FEF80933502109234029093C0
:100AA0003302A7E3B2E0E3E1F2E080E0981721F03F
:100AB0002D9121938F5FFACF109212028091120232
:100AC000CC0FC82BC09312028091BE01813041F43B
:100AD0001092BE01809112028093BB0085EC01C090
:100AE00085EE8093BC008091C0018230E1F380915B
:100AF00035028F3F31F080913502803211F08091C4
:100B000035021092C2011092C10110923602CF91AB
:100B100008950F931F93CF938C01C62F0E94290530
:100B20006C2F6460C8010E9429056C2F6B7FC8017F
:100B30000E94290583EC90E00197F1F7CF911F9176
:100B40000F9108950F931F93CF93DF938C01C62FBE
:100B5000D42F607F642B0E94890580E1C89FB0017B
:100B600011246D2BC801DF91CF911F910F910C942F
:100B7000890541E00E94A20581E090E008951F925E
:100B80000F920FB60F9211242F933F934F935F93C1
:100B90006F937F938F939F93AF93BF93EF93FF9345
:100BA0008091B900887F803609F49CC068F588324E
:100BB00009F45BC090F4803109F454C038F4882300
:100BC00009F4EFC0883009F44DC0EFC0883109F452
:100BD0004CC0803209F45DC0E8C0803409F468C0BC
:100BE00048F4803309F455C0883309F0DEC080939F
:100BF0003502D1C0803509F44FC0883509F45DC095
:100C0000883409F0D2C0CFC0883909F4C0C0A8F434
:100C1000883709F467C038F4883609F463C0803730
:100C200009F460C0C2C0883809F4B1C0803909F441
:100C30005FC0803809F0B9C05BC0803B09F481C057
:100C400038F4803A09F466C0883A09F47AC0ADC035
:100C5000803C09F4A0C0883C09F49DC0883B09F49D
:100C600083C0A3C08091120210C090913402809181
:100C70003302981770F5E091340281E08E0F809373
:100C80003402F0E0ED5EFD4F80818093BB0085EC87
:100C90007FC08093350287C0E091340281E08E0FDF
:100CA000809334028091BB00F0E0ED5EFD4F8083C5
:100CB000909134028091330267C0E091340281E068
:100CC0008E0F809334028091BB00F0E0ED5EFD4F0B
:100CD00080838091BF01811166C081E08093BE0155
:100CE00084EA5AC083E08093C00110921102CFCFF2
:100CF00080911102803208F04AC0E091110281E037
:100D00008E0F809311028091BB00F0E0EF50FE4FF8
:100D10008083BDCF80911102803230F4E0911102C6
:100D2000F0E0EF50FE4F10820E946C0260911102C1
:100D300070E081EF91E0E0E0F0E00995109211029F
:100D40002AC084E08093C0011092F0011092EF015C
:100D5000E0E0F0E009958091EF01811105C081E0AC
:100D60008093EF011092CF01E091F00181E08E0FAE
:100D70008093F001F0E0E153FE4F80818093BB004F
:100D80009091F0018091EF01981708F480CF85E8E9
:100D90008093BC000AC085EC8093BC001092C00117
:100DA00004C0109235020E946C02FF91EF91BF9136
:100DB000AF919F918F917F916F915F914F913F91F3
:100DC0002F910F900FBE0F901F9018958F929F92AA
:100DD000AF92BF92CF92DF92EF92FF92CF93DF93C9
:100DE000A091BE03882311F03A2F01C030E080911A
:100DF000BF0390E0880F991F8A579F4FC090C4038C
:100E0000D090C503E090C603F090C70340E050E0E7
:100E1000BA01FC01C591D49128812A23231314C05F
:100E20004A015B012FEF821A920AA20AB20A4C15FC
:100E30005D056E057F0518F4B501A401EACF30E029
:100E400020E080E090E003C0342F252FCB01632FFA
:100E5000722FDF91CF91FF90EF90DF90CF90BF90F6
:100E6000AF909F908F900895CF92DF92EF92FF9274
:100E70000F931F93CF93DF936C017A018B01C0E036
:100E8000D0E0CE15DF0581F0D8016D918D01D6013E
:100E9000ED91FC910190F081E02DC6010995892B1F
:100EA00011F02196EECF7E01C701DF91CF911F9106
:100EB0000F91FF90EF90DF90CF900895CF93DF9345
:100EC000EC018091920390919303009739F0209167
:100ED0009403309195032C173D07B8F4BE016F5F62
:100EE0007F4F0E942513009791F090939303809376
:100EF0009203D0939503C09394032091960330916D
:100F00009703232B11F4FC01108281E001C080E0E3
:100F1000DF91CF910895E1EAF2E0A089B18982E002
:100F20008C93A485B5851C92A685B7858FEC8C9390
:100F3000108EA489B58986E08C93A289B3898C919F
:100F400080618C93A289B3898C9188608C93A289EB
:100F5000B3898C9180688C930288F389E02D80811D
:100F60008F7D80830895CF92DF92EF92FF920F934F
:100F70001F932FB7F894C0909D02D0909E02E090EE
:100F80009F02F090A0022FBFDC01CB018C0D9D1DB4
:100F9000AE1DBF1D4FB7F89400919D0210919E02A7
:100FA00020919F023091A0024FBF0C151D052E0508
:100FB0003F0528F080179107A207B30758F71F9144
:100FC0000F91FF90EF90DF90CF900895CF92DF9236
:100FD000EF92FF920F931F93CF93DF93CDB7DEB7BE
:100FE000C054D1400FB6F894DEBF0FBECDBF2FB7AF
:100FF000F89480919D0290919E02A0919F02B091E1
:10100000A0022FBF4091C0035091C1036091C20361
:101010007091C3038C019D01041B150B260B370B2C
:10102000B901A801403D57406105710518F4809150
:10103000C803BCC08093C0039093C103A093C203B4
:10104000B093C3031092BB031092BA031092B9037A
:101050001092B8031092B70361E08091BC030E9424
:1010600061036AEF70E080E090E00E942B0461E091
:101070008091BC030E94900360E08091BC030E94B9
:10108000610364E170E080E090E00E942B04F8943A
:1010900061E08091BC030E9461038BE990E00197BD
:1010A000F1F762E08091BC030E94900383E290E03C
:1010B0000197F1F780E00E94E606672B682B692B09
:1010C00021F41092C80378943EC081E00E94E606A5
:1010D000672B682B692BA9F38E010F5F1F4F6E01E1
:1010E0002FEBC21A2EEFD20A780180E00E94E606AA
:1010F000F701608371838283938381E00E94E60617
:10110000F7016483758386839783F8E0EF0EF11C03
:10111000EC14FD0451F7789420E030E0F801C08031
:10112000D180E280F3804481558166817781C1144A
:10113000D104E104F10429F041155105610571055F
:1011400021F41092C80380E031C0F90183E0F595E5
:10115000E7958A95E1F7E954FC4F8081880FC41622
:10116000D506E606F70608F4816080832F5F3F4FBF
:10117000085F1F4F2832310589F62091BB0330E00C
:101180004091B7038091B80390E0840F911D409186
:10119000B903840F911D4091BA03840F911D9927C3
:1011A0002817390771F681E08093C803C05CDE4FD1
:1011B0000FB6F894DEBF0FBECDBFDF91CF911F9168
:1011C0000F91FF90EF90DF90CF900895611571051A
:1011D00079F0FB0101900020E9F73197AF01461B40
:1011E000570BDC01ED91FC910280F381E02D099415
:1011F00080E090E008952F923F924F925F926F921D
:101200007F928F929F92AF92BF92CF92DF92EF9296
:10121000FF920F931F93CF93DF93CDB7DEB7A597C0
:101220000FB6F894DEBF0FBECDBF4B015C01F42EAC
:101230009B01AC010E94D111882319F06DEA71E085
:1012400027C024013501E89477F82FEF3FEF4FE7EF
:101250005FE7C301B2010E94D11181110DC02FEFD0
:101260003FEF4FE75FE7C301B2010E94410F18163D
:101270001CF461EB71E00CC02FEF3FEF4FE75FE430
:10128000C501B4010E94CC1118163CF465EB71E065
:1012900089EC93E00E94E608C2C02FEF3FEF4FE7D2
:1012A0005FECC501B4010E94410F87FDEFCF20E044
:1012B00030E0A901C501B4010E94410F87FF0FC0B2
:1012C00041E06DE289EC93E00E94A205B7FAB09488
:1012D000B7F8B09481E090E09BA38AA302C01BA260
:1012E0001AA210E060E070E080E09FE3F11641F0A8
:1012F00020E030E040E251E40E942B111F5FF6CF66
:10130000A50194010E94BF104B015C010E949D1138
:10131000762EC72ED82EE92E19A2262F372F482F2A
:10132000592F8E010F5D1F4F0CA3612E9AE0292EBD
:10133000312C412C512CCA01B901A20191010E940A
:101340006510605DF80162938F012115310541053B
:10135000510589F7BF0189EC93E00E94E6080AA1D4
:101360001BA1080F191FFF2009F458C0672D7C2D01
:101370008D2D9E2D0E94460F9B01AC01C501B4012D
:101380000E94BE104B015C0141E06EE289EC93E0EB
:101390000E94A2050F5F1F4F8AE0282E312C412C9E
:1013A000512C20E030E040E251E4C501B4010E943C
:1013B000A70F4B015C010E949D119B0140E050E092
:1013C00019A2CCA0D62C762E3AA34DA3E52ECA01A5
:1013D000B901A20191010E946510605DF60162935E
:1013E0006F01211531054105510589F7BF0189ECD0
:1013F00093E00E94E608080F191F672D7AA18DA1BE
:101400009E2D0E94460F9B01AC01C501B4010E94B4
:10141000BE104B015C01FA94F110C3CFC801A59630
:101420000FB6F894DEBF0FBECDBFDF91CF911F91F5
:101430000F91FF90EF90DF90CF90BF90AF909F9073
:101440008F907F906F905F904F903F902F90089576
:101450000F931F93CF93DF93EC010E94E6088C015A
:1014600067E571E0CE010E94E608800F911FDF91D1
:10147000CF911F910F910895CF93DF9300D0CDB7F7
:10148000DEB7789484B5826084BD84B5816084BD04
:1014900085B5826085BD85B5816085BD80916E0012
:1014A000816080936E001092810080918100826043
:1014B0008093810080918100816080938100809180
:1014C00080008160809380008091B100846080936F
:1014D000B1008091B00081608093B00080917A006B
:1014E000846080937A0080917A00826080937A0091
:1014F00080917A00816080937A0080917A00806880
:1015000080937A001092C10010928203109283039C
:1015100010928403109285031092400310924103AD
:10152000109242031092430368EB7BE080E090E06E
:101530000E94B30781EA92E0909381038093800335
:101540000E948B072FB7F89480919D0290919E0284
:10155000A0919F02B091A0022FBF8093400390936F
:101560004103A0934203B093430368E471E0809188
:101570008003909181030E94E6086AE070E080E0B9
:1015800090E00E94B30781E0809354030E948B0790
:101590001092B3031092B2031092B1031092B003F1
:1015A0001092AF031092AE038DE991E09093B503D2
:1015B0008093B4039091A403963108F058C02DEBAA
:1015C00030E03093AF032093AE032BE931E030934A
:1015D000B1032093B0032CE231E03093B3032093A6
:1015E000B20340916800983058F031E09E3008F422
:1015F00030E021E0822F01C0880F3A95EAF701C060
:1016000084E0842B80936800983038F09E3040F05E
:10161000963148F020E030E008C02DE630E005C00B
:101620002BE630E002C02CE630E03093AC03209390
:10163000AB03983030F481E001C0880F9A95EAF747
:101640000EC0292F30E09E3018F42850310902C016
:101650002E50310981E001C0880F2A95EAF7809366
:10166000AD038091B4039091B5030197F1F7809198
:10167000B2039091B303892B49F1E091BC01F09141
:10168000BD0183E0E839F80709F1309739F0A38903
:10169000B4899C918589809589238C938091B60328
:1016A0008E7F8093B6031092BB011092BA0188E935
:1016B00093E09093BD018093BC01E091AB03F09166
:1016C000AC0390818091AD03892B808361E086E03B
:1016D0000E94900361E08AE00E94900361E085E04F
:1016E0000E94900360E08BE00E94900361E08DE037
:1016F0000E9490031092C4011092C3011092C20183
:101700001092C1011092C00181E08093BF0110923C
:10171000BE0161E082E10E94610361E083E10E9419
:1017200061038091B9008E7F8093B9008091B900E8
:101730008D7F8093B90088E48093B80085E480931E
:10174000BC001092CE038091D203823018F098E052
:101750009093CE039091D303992339F0813029F4EB
:101760008091CE0384608093CE0362E370E080E0DA
:1017700090E00E942B046091D40389EC93E00E94D6
:10178000290568EE73E080E090E00E942B0460E39E
:1017900089EC93E00E9489050BE416E4C8010197E7
:1017A000F1F760E389EC93E00E948905C801019795
:1017B000F1F760E389EC93E00E94890583E592E00C
:1017C0000197F1F760E289EC93E00E94890560914E
:1017D000CE03606240E089EC93E00E94A20584E0C1
:1017E0008093CF0340E06CE089EC93E00E94A20577
:1017F00040E061E089EC93E00E94A2050BE31FE169
:10180000C8010197F1F782E08093D00340E066E0E1
:1018100089EC93E00E94A20540E062E089EC93E04D
:101820000E94A205C8010197F1F788E08093D403D4
:1018300060E089EC93E00E9429056AE571E089EC9B
:1018400093E00E94280A62E08091BC030E9490030A
:1018500080E398EFAFEFBFEF8093C0039093C10395
:10186000A093C203B093C3034BE3E42E4FE1F42EE5
:1018700050E4252ECC24CA94D12C88E993E00E9410
:1018800033028C01892B29F188E993E00E944B02F5
:1018900089831A8200919603109197030F5F1F4F5F
:1018A000C8010E945E07882341F320919203309182
:1018B00093038091960390919703BE016F5F7F4FD2
:1018C000820F931F0E9402141093970300939603B4
:1018D000D4CF60ED77E080E090E00E942B0440E000
:1018E00061E089EC93E00E94A205C7010197F1F73E
:1018F0000E94E607882399F18091BD038B3029F17E
:1019000070F18551823058F56091B70370E080E046
:1019100090E00E94460F20E030E040E853E40E944F
:10192000A70F4B015C016091B80370E080E090E08C
:101930000E94480FA50194010E94BF102DEC3CECC1
:101940004CEC5DE30E94A70F07C06091B70370E005
:1019500080E090E00E94460F2B013C0106C0412C24
:10196000512C30EC632E3FE7732E4092CB01509206
:10197000CC016092CD017092CE010E94E6078823CF
:10198000F1F18091BD038B3029F0C8F1855182308F
:1019900058F035C06091B90370E080E090E00E949B
:1019A000460F4B015C0131C03090B903632D6F7756
:1019B00070E080E090E00E94480F20E030E040E8D6
:1019C00053E40E94A70F4B015C016091BA0370E0E1
:1019D00080E090E00E94480FA50194010E94BF1092
:1019E0002DEC3CEC4CEC5DE30E94A70F4B015C013D
:1019F00037FE0BC0B7FAB094B7F8B09406C0812C8C
:101A0000912C20ECA22E2FE7B22E8092C70190924B
:101A1000C801A092C901B092CA01A3019201C301F9
:101A2000B2010E94D111811108C0A5019401C50124
:101A3000B4010E94D111882349F06DE671E081EA7A
:101A400092E00E94280A0E949B0117CF6DE871E086
:101A500089EC93E00E94280A6091CB017091CC013F
:101A60008091CD019091CE0142E00E94FB0868E98F
:101A700071E089EC93E00E94E6086CE971E089EC82
:101A800093E00E94280A6091C7017091C80180917B
:101A9000C9019091CA0142E00E94FB086AEA71E024
:101AA00089EC93E00E94E608E3E7F0E08491E9EB3B
:101AB000F0E0B490E5EAF0E0A490AA2099F081115A
:101AC0000E943803EA2DF0E0EE0FFF1FEA57FF4FA8
:101AD000A591B4918C91B82291E080E009F490E056
:101AE000092F182F88E993E00E943302892B09F00F
:101AF000AACF8091960390919703892B09F4A3CFE5
:101B0000A0909203B0909303F5018081882309F49B
:101B10009ACF69E671E0C5010E94F913892BB1F5EE
:101B200001301105D9F520927C0080917A00806403
:101B300080937A0080917A0086FDFCCF0091780036
:101B40008091790010E0182B17FF02C00D5F1F4F26
:101B500015950795159507951093C6010093C50136
:101B6000B601601B710B8AE00E94CC03B80185E0CE
:101B70000E94CC0360E070E086E00E94CC0368EC39
:101B800070E080E090E00E942B045DCF6BE671E096
:101B9000C5010E94F913892B09F055CF60E070E070
:101BA0008AE00E94CC0360E070E085E00E94CC03F4
:101BB00060E070E086E00E94CC0345CF8091920304
:101BC000909193030E949C128EE291E0909399036E
:101BD000809398038091BC019091BD0188599340F6
:101BE00071F4E091AB03F091AC0390818091AD036F
:101BF0008095892380831092BD011092BC010895C5
:101C00001092A4021092A30288EE93E0A0E0B0E04C
:101C10008093A5029093A602A093A702B093A80276
:101C20002AE031E03093A2022093A10225EC30E0BB
:101C30003093AE022093AD0224EC30E03093B0023A
:101C40002093AF0220EC30E03093B2022093B10237
:101C500021EC30E03093B4022093B30222EC30E068
:101C60003093B6022093B50226EC30E03093B802F0
:101C70002093B7021092BA021092BB021092BC02DB
:101C80001092BD0210924403109245031092460335
:101C900010924703109248031092490310924A038E
:101CA00010924B0310924C0310924D0310924E036E
:101CB00010924F031092500310925103109252034E
:101CC00010925303109289031092880380938A0321
:101CD00090938B03A0938C03B0938D032CE131E0A0
:101CE00030938703209386031092CC031092CB038A
:101CF00020E431E03093CA032093C90327E2209304
:101D0000CD0324E12093D10324E02093D203109249
:101D1000D30338E03093D4032093BC032BE020930B
:101D2000BD03E2EBF0E0E491E093BE03EEE9F0E006
:101D3000E491E093BF0340E85EE360E070E040932D
:101D4000C4035093C5036093C6037093C7031092F6
:101D50009B0310929A0380939C0390939D03A093FE
:101D60009E03B0939F038EE291E09093990380933A
:101D700098031092AF031092AE031092B103109229
:101D8000B0031092B3031092B2031092B5031092F5
:101D9000B4036091B6036E7F6D7F6093B603669562
:101DA000617081E0682783E00E94610361E083E065
:101DB0000E949003E1EBF0E0E491E093A803EDE9E9
:101DC000F0E0E491F0E0EE0FFF1FE057FF4F859148
:101DD00094919093AA038093A90360E082E00E940B
:101DE00090038091B60381FD04C061E082E00E940F
:101DF000610382E08093A403E0EBF0E0E491E093E0
:101E0000A503ECE9F0E0E491F0E0EE0FFF1FEA57E4
:101E1000FF4F859194919093A7038093A60310920E
:101E200093031092920310929503109294031092D0
:101E300097031092960380E090E00E945E07209145
:101E4000920330919303811113C02115310519F0CC
:101E5000C9010E949C121092930310929203109257
:101E6000970310929603109295031092940308958D
:101E7000109297031092960369E571E0C9010C94E2
:101E800002140E94830F08F481E00895E89409C0C9
:101E900097FB3EF490958095709561957F4F8F4F9D
:101EA0009F4F9923A9F0F92F96E9BB279395F695B3
:101EB000879577956795B795F111F8CFFAF4BB0F31
:101EC00011F460FF1BC06F5F7F4F8F4F9F4F16C095
:101ED000882311F096E911C0772321F09EE8872F1F
:101EE000762F05C0662371F096E8862F70E060E0DB
:101EF0002AF09A95660F771F881FDAF7880F969554
:101F0000879597F90895990F0008550FAA0BE0E8F7
:101F1000FEEF16161706E807F907C0F012161306AB
:101F2000E407F50798F0621B730B840B950B39F4EB
:101F30000A2661F0232B242B252B21F408950A2651
:101F400009F4A140A6958FEF811D811D08950E947F
:101F5000BA0F0C942B100E941D1038F00E94241010
:101F600020F0952311F00C9414100C941A101124E5
:101F70000C945F100E943C1070F3959FC1F3950F75
:101F800050E0551F629FF001729FBB27F00DB11DFD
:101F9000639FAA27F00DB11DAA1F649F6627B00D8D
:101FA000A11D661F829F2227B00DA11D621F739F76
:101FB000B00DA11D621F839FA00D611D221F749F84
:101FC0003327A00D611D231F849F600D211D822FCB
:101FD000762F6A2F11249F5750409AF0F1F08823F2
:101FE0004AF0EE0FFF1FBB1F661F771F881F91501F
:101FF0005040A9F79E3F510580F00C9414100C94AA
:102000005F105F3FE4F3983ED4F38695779567952C
:10201000B795F795E7959F5FC1F7FE2B880F911D48
:102020009695879597F9089597F99F6780E870E0EE
:1020300060E008959FEF80EC089500240A9416163E
:10204000170618060906089500240A9412161306A6
:10205000140605060895092E0394000C11F4882334
:1020600052F0BB0F40F4BF2B11F460FF04C06F5F50
:102070007F4F8F4F9F4F089557FD9058440F551F26
:1020800059F05F3F71F04795880F97FB991F61F0FA
:102090009F3F79F087950895121613061406551F71
:1020A000F2CF4695F1DF08C0161617061806991FDD
:1020B000F1CF86957105610508940895E894BB27D2
:1020C00066277727CB0197F90895A1E21A2EAA1B5C
:1020D000BB1BFD010DC0AA1FBB1FEE1FFF1FA217D8
:1020E000B307E407F50720F0A21BB30BE40BF50BD5
:1020F000661F771F881F991F1A9469F7609570955E
:10210000809590959B01AC01BD01CF0108952F9260
:102110003F924F925F926F927F928F929F92AF9277
:10212000BF92CF92DF92EF92FF920F931F93CF93C4
:10213000DF93CDB7DEB7CA1BDB0B0FB6F894DEBF5B
:102140000FBECDBF09942A88398848885F846E8481
:102150007D848C849B84AA84B984C884DF80EE80CB
:10216000FD800C811B81AA81B981CE0FD11D0FB6D4
:10217000F894DEBF0FBECDBFED0108955058BB27C8
:10218000AA270E94D6100C942B100E941D1038F024
:102190000E94241020F039F49F3F19F426F40C9487
:1021A0001A100EF4E095E7FB0C941410E92F0E942E
:1021B0003C1058F3BA17620773078407950720F09D
:1021C00079F4A6F50C945E100EF4E0950B2EBA2F60
:1021D000A02D0B01B90190010C01CA01A00111242D
:1021E000FF27591B99F0593F50F4503E68F11A16D9
:1021F000F040A22F232F342F4427585FF3CF46956A
:1022000037952795A795F0405395C9F77EF41F168B
:10221000BA0B620B730B840BBAF09150A1F0FF0F55
:10222000BB1F661F771F881FC2F70EC0BA0F621F41
:10223000731F841F48F4879577956795B795F79531
:102240009E3F08F0B0CF9395880F08F09927EE0FC6
:102250009795879508950E943F110C942B100E942A
:10226000241058F00E941D1040F029F45F3F29F01F
:102270000C94141051110C945F100C941A100E94BD
:102280003C1068F39923B1F3552391F3951B550B3B
:10229000BB27AA2762177307840738F09F5F5F4F39
:1022A000220F331F441FAA1FA9F335D00E2E3AF078
:1022B000E0E832D091505040E695001CCAF72BD090
:1022C000FE2F29D0660F771F881FBB1F26173707E1
:1022D0004807AB07B0E809F0BB0B802DBF01FF2713
:1022E00093585F4F3AF09E3F510578F00C941410CC
:1022F0000C945F105F3FE4F3983ED4F38695779596
:102300006795B795F7959F5FC9F7880F911D9695CB
:10231000879597F90895E1E0660F771F881FBB1F27
:10232000621773078407BA0720F0621B730B840BD4
:10233000BA0BEE1F88F7E09508950E94441088F0CC
:102340009F5798F0B92F9927B751B0F0E1F0660F79
:10235000771F881F991F1AF0BA95C9F714C0B130BA
:1023600091F00E945E10B1E008950C945E10672F0A
:10237000782F8827B85F39F0B93FCCF386957795E9
:102380006795B395D9F73EF49095809570956195D2
:102390007F4F8F4F9F4F08950E94830F08F48FEF58
:1023A00008950E94830F880B990B089597FB072EC1
:1023B00016F4009407D077FD09D00E94EA1107FCBB
:1023C00005D03EF4909581959F4F08957095619545
:1023D0007F4F0895AA1BBB1B51E107C0AA1FBB1F5B
:1023E000A617B70710F0A61BB70B881F991F5A95A1
:1023F000A9F780959095BC01CD010895EE0FFF1FC0
:102400000590F491E02D09940F931F93CF93DF93E0
:102410008230910510F482E090E0E091D703F091D2
:10242000D80320E030E0A0E0B0E0309719F140811F
:1024300051810281138148175907C8F08417950705
:1024400069F4109731F012960C93129713961C931F
:1024500027C00093D7031093D80322C0211531055C
:1024600019F04217530718F49A01BD01EF01DF017B
:10247000F801DBCF21153105F9F0281B390B243089
:10248000310580F48A819B816115710521F0FB0182
:102490009383828304C09093D8038093D703FE0173
:1024A000329644C0FE01E20FF31F819391932250B4
:1024B0003109398328833AC02091D5033091D6035E
:1024C000232B41F420910201309103013093D60374
:1024D0002093D50320910001309101012115310590
:1024E00041F42DB73EB74091040150910501241BE2
:1024F000350BE091D503F091D603E217F307A0F472
:102500002E1B3F0B2817390778F0AC014E5F5F4F49
:102510002417350748F04E0F5F1F5093D6034093A2
:10252000D5038193919302C0E0E0F0E0CF01DF9109
:10253000CF911F910F910895CF93DF93009709F4E6
:1025400081C0FC01329713821282A091D703B0910F
:10255000D803109781F420813181820F931F20913D
:10256000D5033091D6032817390751F5F093D603D8
:10257000E093D50367C0ED0120E030E0CE17DF0720
:1025800040F44A815B819E0141155105F1F0EA0159
:10259000F5CFD383C28340815181840F951FC81723
:1025A000D90759F488819981840F951F02969183E8
:1025B00080838A819B81938382832115310529F44D
:1025C000F093D803E093D7033DC0E901FB83EA838E
:1025D00049915991C40FD51FEC17FD0761F4808113
:1025E0009181840F951F0296E901998388838281E6
:1025F00093819B838A83E0E0F0E012968D919C9119
:102600001397009719F0FD01DC01F7CF8D919C9194
:1026100011979D012E5F3F4F820F931F2091D5038D
:102620003091D6032817390769F4309729F41092AE
:10263000D8031092D70302C013821282B093D6033C
:10264000A093D503DF91CF910895A0E0B0E0EBE235
:10265000F3E10C948B10EC01009721F4CB010E9464
:102660000412B4C0FC01E60FF71F9C01225031098F
:10267000E217F30708F4A8C0D9010D911C91119736
:1026800006171707B0F00530110508F49BC0C80104
:1026900004978617970708F495C002501109061B86
:1026A000170B019311936D937C93CF010E949C12A1
:1026B00089C05B01A01AB10A4C01800E911EA09145
:1026C000D703B091D803612C712CE12CF12C109719
:1026D00009F446C08D919C911197A815B905B1F5E3
:1026E0006C0142E0C40ED11CCA14DB0478F14C0129
:1026F0008A189B08640142E0C40ED11C1296BC905B
:1027000012971396AC91B5E0CB16D10440F0B2828B
:10271000A38391828082D9016D937C9309C00E5F5F
:102720001F4F800F911FF90191838083EB2DFA2FAA
:10273000E114F10431F0D7011396FC93EE93129754
:1027400041C0F093D803E093D7033CC068167906E4
:1027500008F43C017D0112960D90BC91A02DB7CFDD
:102760008091D5039091D60388169906E1F46616F8
:102770007706C8F48091000190910101009741F41F
:102780008DB79EB74091040150910501841B950BB4
:10279000E817F907C8F4F093D603E093D503F901DD
:1027A000718360830FC0CB010E9404127C010097EB
:1027B00059F0A801BE010E94F013CE010E949C12A4
:1027C000C70104C0CE0102C080E090E0CDB7DEB703
:1027D000EEE00C94A71081E090E0F8940C940914BA
:1027E000FB01DC0102C001900D9241505040D8F72E
:1027F0000895FB01DC018D91019080190110D9F33E
:10280000990B0895FB01DC0101900D920020E1F786
:10281000089510E0C2E6D0E004C0FE010E94FE115F
:0C2820002196C336D107C9F7F894FFCF0A
:10282C000000D903800000000000C80034078D00B0
:10283C0015018F019C00B00000000000E102B40201
:10284C001103E201AC029D028F0200000000E301C3
:10285C0034071103E20133024B02CA0100000000ED
:10286C00B905340711031003564D4450565F317CA3
:10287C00315F564D4450560D0A00496E7469616CB7
:10288C00697A696E672E2E2E003100300046616920
:10289C006C656420746F20726561642066726F6D64
:1028AC00204448542073656E736F722100556D6916
:1028BC00646974C3A03A20002025200054656D7013
:1028CC00657261747572613A20002043006E616E0E
:0A28DC0000696E66006F766600006A
:107E0000112484B714BE81FFF0D085E080938100F7
:107E100082E08093C00088E18093C10086E0809377
:107E2000C20080E18093C4008EE0C9D0259A86E02C
:107E300020E33CEF91E0309385002093840096BBD3
:107E4000B09BFECF1D9AA8958150A9F7CC24DD24C4
:107E500088248394B5E0AB2EA1E19A2EF3E0BF2EE7
:107E6000A2D0813461F49FD0082FAFD0023811F036
:107E7000013811F484E001C083E08DD089C08234E0
:107E800011F484E103C0853419F485E0A6D080C0E4
:107E9000853579F488D0E82EFF2485D0082F10E0AE
:107EA000102F00270E291F29000F111F8ED06801E7
:107EB0006FC0863521F484E090D080E0DECF843638
:107EC00009F040C070D06FD0082F6DD080E0C81688
:107ED00080E7D80618F4F601B7BEE895C0E0D1E017
:107EE00062D089930C17E1F7F0E0CF16F0E7DF06D8
:107EF00018F0F601B7BEE89568D007B600FCFDCFD4
:107F0000A601A0E0B1E02C9130E011968C91119780
:107F100090E0982F8827822B932B1296FA010C0160
:107F200087BEE89511244E5F5F4FF1E0A038BF0790
:107F300051F7F601A7BEE89507B600FCFDCF97BE46
:107F4000E89526C08437B1F42ED02DD0F82E2BD052
:107F50003CD0F601EF2C8F010F5F1F4F84911BD097
:107F6000EA94F801C1F70894C11CD11CFA94CF0C13
:107F7000D11C0EC0853739F428D08EE10CD085E9AC
:107F80000AD08FE07ACF813511F488E018D01DD067
:107F900080E101D065CF982F8091C00085FFFCCF94
:107FA0009093C60008958091C00087FFFCCF809118
:107FB000C00084FD01C0A8958091C6000895E0E648
:107FC000F0E098E1908380830895EDDF803219F02E
:107FD00088E0F5DFFFCF84E1DECF1F93182FE3DFCA
:107FE0001150E9F7F2DF1F91089580E0E8DFEE27F6
:047FF000FF270994CA
:027FFE00040479
:0400000300007E007B
:00000001FF