:100000000C94E0000C9408010C9408010C942B054E
:100010000C942B050C942B050C9408010C940801EE
:100020000C9408010C9408010C9408010C9408012C
:100030000C9408010C9408010C9408010C9408011C
:100040000C94E1040C9408010C943A010C941401F2
:100050000C9408010C9408010C9408010C940801FC
:100060000C943B060C94080100407A10F35A00A04F
:10007000724E18090010A5D4E80000E87648170071
:1000800000E40B54020000CA9A3B000000E1F505B1
:10009000000080969800000040420F000000A086FB
:1000A00001000000102700000000E803000000002D
:1000B0006400000000000A000000000001000000D1
:1000C00000002C76D888DC674F0823DFC1DFAE59EB
:1000D000E1B1B796E5E3E453C63AE651997696E87E
:1000E000E6C28426EB898C9B62ED407C6FFCEFBC02
:1000F0009C9F40F2BAA56FA5F490055A2AF75C932D
:100100006B6CF9676DC11BFCE0E40D47FEF520E662
:10011000B500D0ED902E0300943577050080841E45
:10012000080000204E0A000000C80C333333330FA0
:10013000986E12831141EF8D2114893BE65516CF3D
:10014000FEE6DB18D1844B381BF77C1D901DA4BB49
:10015000E424203284725E228100C9F124ECA1E5FE
:100160003D27000000080002010000030407000012
:1001700000000000000000000000240027002A000A
:1001800000000000230026002900000000002500D8
:1001900028002B00040404040404040402020202E4
:1001A000020203030303030301020408102040803A
:1001B0000102040810200102040810204E102E1025
:1001C00011241FBECFEFD8E0DEBFCDBF24E0A8EEE4
:1001D000B1E001C01D92A730B207E1F711E0A0E045
:1001E000B1E0E0E3F0E302C005900D92A83EB10754
:1001F000D9F710E0CFEDD0E004C02197FE010E94B6
:100200000016CE3DD107C9F70E94A00B0C940B1825
:100210000C9400008FEC92E00E949D0121E0892B5C
:1002200009F420E0822F08951F920F920FB60F92CB
:1002300011242F933F934F935F936F937F938F93EB
:100240009F93AF93BF93EF93FF938FEC92E00E9445
:100250002303FF91EF91BF91AF919F918F917F9178
:100260006F915F914F913F912F910F900FBE0F9023
:100270001F9018951F920F920FB60F9211242F9373
:100280008F939F93EF93FF93E091DF02F091E00251
:100290008081E091E502F091E60282FD12C090813A
:1002A0008091E8028F5F8F732091E902821751F0ED
:1002B000E091E802F0E0E153FD4F958F8093E80272
:1002C00001C08081FF91EF919F918F912F910F90AD
:1002D0000FBE0F901F901895FC01538D448D252F54
:1002E00030E0842F90E0821B930B541710F0CF96D0
:1002F000089501970895FC01918D828D981761F002
:10030000828DDF01A80FB11D5D968C91928D9F5F4C
:100310009F73928F90E008958FEF9FEF0895FC01F7
:10032000918D828D981731F0828DE80FF11D858DAA
:1003300090E008958FEF9FEF0895FC01918D228D3D
:10034000892F90E0805C9F4F821B91098F739927C2
:10035000089580E090E0892B29F00E940A01811124
:100360000C94000008953FB7F8948091C7029091D3
:10037000C802A091C902B091CA0226B5A89B05C0C7
:100380002F3F19F00196A11DB11D3FBFBA2FA92F14
:10039000982F8827820F911DA11DB11DBC01CD0191
:1003A00042E0660F771F881F991F4A95D1F708957D
:1003B0002091EA013091EB012817390771F49091EF
:1003C000E8018091E901981741F0E091E801F0E03F
:1003D000EA57FD4F808190E008958FEF9FEF0895D9
:1003E00008951F93CF93DF93DC015C968D919C91D0
:1003F0005D97009739F421E030E013963C932E93FB
:1004000012973BC05196ED91FC91529750962C91CA
:100410005097322F30951FB75E964C915E97742F90
:10042000727041FD6095F8944081772311F0422B62
:1004300001C043234083EC012197F1F748E050814C
:1004400060FF02C0522B01C053235083EC0121975F
:10045000F1F76695415099F78081772319F083234E
:10046000808302C0282B20831FBF5C968D919C91B6
:100470005D970197F1F781E090E0DF91CF911F91B7
:1004800008952091EA013091EB012817390771F4A2
:100490008091E9012091E80190E0805C9F4F821BF0
:1004A000910960E470E00E94D815089580E090E022
:1004B00008952091EA013091EB0128173907B9F42A
:1004C0009091E8018091E901981789F0E091E801A5
:1004D000F0E0EA57FD4F80812091E80130E02F5F86
:1004E0003F4F2F7333272093E80190E008958FEF5B
:1004F0009FEF089585ED8093BC008091BC0084FD42
:10050000FCCF1092EE010895613298F42091EE0133
:10051000243089F460931D02282FADEFB1E0FC0177
:100520008E2F821B861718F481918D93F9CF80E06E
:10053000089581E0089582E0089581E090E030918F
:10054000F2012091F101321710F480E090E09195D2
:100550008195910908958091F2019091F101891797
:1005600030F48F5F8093F20180E090E008958FEF88
:100570009FEF08958091F10190E02091F201821B9C
:1005800091090895CF92DF92EF92FF920F931F93FC
:10059000CF93DF937C01CB018A0120916402222357
:1005A00089F0EB016B01C40ED51ECC15DD0569F099
:1005B0006991D701ED91FC910190F081E02DC70187
:1005C0000995F3CF642F0E948402C801DF91CF9177
:1005D0001F910F91FF90EF90DF90CF900895CF93F0
:1005E000DF931F92CDB7DEB7698320916402222387
:1005F000D1F02091EF01203240F021E030E0FC0109
:100600003383228380E090E015C08091F001E82FD1
:10061000F0E0EB59FD4F998190838F5F8093F0015B
:100620008093EF0105C061E0CE0101960E94840233
:1006300081E090E00F90DF91CF91089580E090E00D
:1006400008950E94ED17FC01848DDF01A80FB11DF4
:10065000A35ABF4F2C91848D90E001968F739927F8
:10066000848FA689B7892C93A089B1898C918370D6
:1006700080648C93938D848D981306C00288F389CF
:10068000E02D80818F7D80830895EF92FF920F93FC
:100690001F93CF93DF93EC0181E0888F9B8D8C8D2E
:1006A000981305C0E889F989808185FD26C0F62E5A
:1006B0000B8D10E00F5F1F4F0F731127E02E8C8DF5
:1006C000E8120CC00FB607FCFACFE889F9898081DF
:1006D00085FFF5CFCE010E942303F1CF8B8DFE0164
:1006E000E80FF11DE35AFF4FF0829FB7F8940B8F8C
:1006F000EA89FB89808180620AC09FB7F894EE89FD
:10070000FF896083E889F9898081837080648083B0
:100710009FBF81E090E0DF91CF911F910F91FF90FB
:10072000EF900895CF93DF93EC01888D8823C9F073
:10073000EA89FB89808185FD05C0A889B9898C91EA
:1007400086FD0FC00FB607FCF5CF808185FFF2CF85
:10075000A889B9898C9185FFEDCFCE010E94230332
:10076000E7CFDF91CF910895833081F028F4813075
:1007700099F08230A1F008958730A9F08830B9F05F
:100780008430D1F4809180008F7D03C080918000FF
:100790008F7780938000089584B58F7702C084B5E9
:1007A0008F7D84BD08958091B0008F7703C08091C4
:1007B000B0008F7D8093B00008951F93CF93DF9397
:1007C000282F30E0F901EE59FE4F8491F901E855E8
:1007D000FE4FD491F901EC56FE4FC491CC23C1F0E9
:1007E000162F81110E94B403EC2FF0E0EE0FFF1FD3
:1007F000E657FE4FA591B4919FB7F894111104C02C
:100800008C91D095D82302C0EC91DE2BDC939FBF56
:10081000DF91CF911F910895CF93DF9390E0FC017A
:10082000E855FE4F2491FC01EC56FE4F849188233D
:1008300061F190E0880F991FFC01EA58FE4FC591C5
:10084000D491FC01E657FE4FA591B491611109C006
:100850009FB7F8948881209582238883EC912E237A
:100860000BC0623061F49FB7F8948881322F3095C5
:1008700083238883EC912E2B2C939FBF06C08FB7C8
:10088000F894E8812E2B28838FBFDF91CF910895B4
:100890001F93CF93DF93182FEB0161E00E940C04AC
:1008A000209711F460E004C0CF3FD10539F461E036
:1008B000812FDF91CF911F910C94DD03E12FF0E0A8
:1008C000EE59FE4FE491E330F9F048F4E130B9F02D
:1008D000E230A1F584B5806284BDC8BD34C0E73084
:1008E000E9F0E83019F1E43049F580918000806248
:1008F00080938000D0938B00C0938A0024C084B57D
:10090000806884BDC7BD1FC08091800080688093CF
:100910008000D0938900C093880015C08091B000FA
:1009200080688093B000C093B3000DC08091B00088
:1009300080628093B000C093B40005C0C038D10578
:100940000CF0B5CFAFCFDF91CF911F9108958F926B
:100950009F92AF92BF92CF92DF92EF92FF926B0184
:100960007C010E94B3014B015C01C114D104E1047C
:10097000F104F1F00E94B301DC01CB01881999095F
:10098000AA09BB09883E9340A105B10570F321E097
:10099000C21AD108E108F10888EE880E83E0981E9B
:1009A000A11CB11CC114D104E104F10419F7DDCF7D
:1009B000FF90EF90DF90CF90BF90AF909F908F907F
:1009C00008951F920F920FB60F9211242F933F9309
:1009D0008F939F93AF93BF938091CB029091CC0262
:1009E000A091CD02B091CE023091C60223E0230F38
:1009F0002D3720F40196A11DB11D05C026E8230F57
:100A00000296A11DB11D2093C6028093CB02909344
:100A1000CC02A093CD02B093CE028091C7029091F8
:100A2000C802A091C902B091CA020196A11DB11DD0
:100A30008093C7029093C802A093C902B093CA02E0
:100A4000BF91AF919F918F913F912F910F900FBECA
:100A50000F901F9018951F920F920FB60F921124AE
:100A60002F933F934F935F936F937F938F939F93B6
:100A7000AF93BF93EF93FF93E091EA01F091EB0105
:100A8000309709F451C0968DA685B785858591FF6D
:100A900004C09C91892329F447C09C91892309F0C3
:100AA00043C0A389B4899C918589809589238C93BF
:100AB000868997890197F1F7608D718DA685B78535
:100AC000558538E020E0CB010197F1F7822F90E0C7
:100AD00095958795282F4C91452309F02068315032
:100AE00091F7868D81FD20958091E90190E0019636
:100AF0008F7399273091E801381749F0A091E901E7
:100B0000B0E0AA57BD4F2C938093E90103C0868DB6
:100B10008160868F828D938D0197F1F7A389B489C7
:100B20009C918589892B8C93FF91EF91BF91AF9117
:100B30009F918F917F916F915F914F913F912F91F5
:100B40000F900FBE0F901F901895CF93FC01C4819A
:100B500021E020936402C09385021092F00110926C
:100B6000EF018385682B84EB93E00E94EF02909164
:100B7000EF01913208F041C08091EE018111FCCF6C
:100B800082E08093EE0181E08093ED018FEF80930E
:100B900063021092620290936102A5E6B2E0E1E482
:100BA000F2E080E0981721F02D9121938F5FFACF2A
:100BB0001092400280914002CC0FC82BC09340029B
:100BC0008091EC01813041F41092EC01809140025F
:100BD0008093BB0085EC01C085EE8093BC008091C2
:100BE000EE018230E1F3809163028F3F31F080911A
:100BF0006302803211F0809163021092F001109232
:100C0000EF0110926402CF9108950F931F93CF9339
:100C10008C01C62F0E94A5056C2F6460C8010E943C
:100C2000A5056C2F6B7FC8010E94A50583EC90E0A1
:100C30000197F1F7CF911F910F9108950F931F9393
:100C4000CF93DF938C01C62FD42F607F642B0E943B
:100C5000050680E1C89FB00111246D2BC801DF910A
:100C6000CF911F910F910C94050641E00E941E0642
:100C700081E090E008951F920F920FB60F92112419
:100C80002F933F934F935F936F937F938F939F9394
:100C9000AF93BF93EF93FF938091B900887F803625
:100CA00009F49CC068F5883209F45BC090F4803187
:100CB00009F454C038F4882309F4EFC0883009F4EB
:100CC0004DC0EFC0883109F44CC0803209F45DC0DA
:100CD000E8C0803409F468C048F4803309F455C092
:100CE000883309F0DEC080936302D1C0803509F4F7
:100CF0004FC0883509F45DC0883409F0D2C0CFC038
:100D0000883909F4C0C0A8F4883709F467C038F4FA
:100D1000883609F463C0803709F460C0C2C08838DF
:100D200009F4B1C0803909F45FC0803809F0B9C056
:100D30005BC0803B09F481C038F4803A09F466C096
:100D4000883A09F47AC0ADC0803C09F4A0C0883C60
:100D500009F49DC0883B09F483C0A3C08091400280
:100D600010C09091620280916102981770F5E09135
:100D7000620281E08E0F80936202F0E0EF5BFD4F34
:100D800080818093BB0085EC7FC08093630287C025
:100D9000E091620281E08E0F809362028091BB003D
:100DA000F0E0EF5BFD4F80839091620280916102E1
:100DB00067C0E091620281E08E0F809362028091B1
:100DC000BB00F0E0EF5BFD4F80838091ED0181116E
:100DD00066C081E08093EC0184EA5AC083E080938E
:100DE000EE0110923F02CFCF80913F02803208F097
:100DF0004AC0E0913F0281E08E0F80933F028091D4
:100E0000BB00F0E0E15EFD4F8083BDCF80913F02EB
:100E1000803230F4E0913F02F0E0E15EFD4F10825D
:100E20000E947A0260913F0270E08FE192E0E0E080
:100E3000F0E0099510923F022AC084E08093EE0111
:100E400010921E0210921D02E0E0F0E009958091E0
:100E50001D02811105C081E080931D021092FD01E9
:100E6000E0911E0281E08E0F80931E02F0E0E350BD
:100E7000FE4F80818093BB0090911E0280911D02E5
:100E8000981708F480CF85E88093BC000AC085ECF1
:100E90008093BC001092EE0104C0109263020E9485
:100EA0007A02FF91EF91BF91AF919F918F917F91C6
:100EB0006F915F914F913F912F910F900FBE0F90C7
:100EC0001F9018958F929F92AF92BF92CF92DF9210
:100ED000EF92FF92CF93DF93A091EC03882311F060
:100EE0003A2F01C030E08091ED0390E0880F991F08
:100EF00080589E4FC090F203D090F303E090F4032B
:100F0000F090F50340E050E0BA01FC01C591D491A6
:100F100028812A23231314C04A015B012FEF821A70
:100F2000920AA20AB20A4C155D056E057F0518F4F7
:100F3000B501A401EACF30E020E080E090E003C0FA
:100F4000342F252FCB01632F722FDF91CF91FF908C
:100F5000EF90DF90CF90BF90AF909F908F900895CB
:100F60000895CF92DF92EF92FF920F931F93CF934A
:100F7000DF936C017A018B01C0E0D0E0CE15DF0574
:100F800081F0D8016D918D01D601ED91FC91019018
:100F9000F081E02DC6010995892B11F02196EECF45
:100FA0007E01C701DF91CF911F910F91FF90EF90CC
:100FB000DF90CF9008950F931F93CF93DF93EC01B1
:100FC00088819981009729F02A813B81261737076C
:100FD00088F48B016F5F7F4F0E942717009761F0A5
:100FE000998388831B830A832C813D81232B11F4F1
:100FF000FC01108281E001C080E0DF91CF911F9160
:101000000F910895EF92FF920F931F93CF93DF9369
:101010006115710511F480E01CC041155105C1F046
:101020007B01EC018C819D818A01080F191FB80199
:10103000CE010E94DB07882371F3288139818C81DE
:101040009D81B701820F931F0E9404181D830C839A
:1010500081E0DF91CF911F910F91FF90EF90089564
:10106000CF93DF93EC0188819981009711F00E9462
:101070009E16198218821D821C821B821A82DF91A1
:10108000CF910895EFECF2E0A089B18982E08C93D2
:10109000A485B5851C92A685B7858FEC8C93108EA0
:1010A000A489B58986E08C93A289B3898C918061EB
:1010B0008C93A289B3898C9188608C93A289B3891F
:1010C0008C9180688C930288F389E02D80818F7DDC
:1010D0008083089540E061E087EF93E00E941E0660
:1010E0008BE39FE10197F1F70895CF92DF92EF92A2
:1010F000FF920F931F932FB7F894C090CB02D0901C
:10110000CC02E090CD02F090CE022FBFDC01CB01EB
:101110008C0D9D1DAE1DBF1D4FB7F8940091CB02E5
:101120001091CC022091CD023091CE024FBF0C1510
:101130001D052E053F0528F080179107A207B3076C
:1011400058F71F910F91FF90EF90DF90CF90089587
:10115000CF93DF93EC01FB01448155816081718164
:101160000E940208811103C0CE010E943008CE0106
:10117000DF91CF910895CF92DF92EF92FF920F937C
:101180001F93CF93DF93CDB7DEB7C054D1400FB6D6
:10119000F894DEBF0FBECDBF2FB7F8948091CB027D
:1011A0009091CC02A091CD02B091CE022FBF409180
:1011B000EE035091EF036091F0037091F1038C0105
:1011C0009D01041B150B260B370BB901A801403DEF
:1011D00057406105710518F48091F603BCC08093F7
:1011E000EE039093EF03A093F003B093F1031092FA
:1011F000E9031092E8031092E7031092E6031092BD
:10120000E50361E08091EA030E94DD036AEF70E08C
:1012100080E090E00E94A70461E08091EA030E94D0
:101220000C0460E08091EA030E94DD0364E170E059
:1012300080E090E00E94A704F89461E08091EA03C6
:101240000E94DD038BE990E00197F1F762E0809165
:10125000EA030E940C0483E290E00197F1F780E03A
:101260000E946207672B682B692B21F41092F6030A
:1012700078943EC081E00E946207672B682B692B3F
:10128000A9F38E010F5F1F4F6E012FEBC21A2EEFD5
:10129000D20A780180E00E946207F70160837183BF
:1012A0008283938381E00E946207F70164837583E0
:1012B00086839783F8E0EF0EF11CEC14FD0451F7E0
:1012C000789420E030E0F801C080D180E280F380A3
:1012D0004481558166817781C114D104E104F10410
:1012E00029F0411551056105710521F41092F603AD
:1012F00080E031C0F90183E0F595E7958A95E1F743
:10130000EB51FC4F8081880FC416D506E606F70620
:1013100008F4816080832F5F3F4F085F1F4F2832A2
:10132000310589F62091E90330E04091E503809191
:10133000E60390E0840F911D4091E703840F911D17
:101340004091E803840F911D99272817390771F6FA
:1013500081E08093F603C05CDE4F0FB6F894DEBFE9
:101360000FBECDBFDF91CF911F910F91FF90EF90F6
:10137000DF90CF900895CF93DF93EC016115710555
:1013800061F0FB0101900020E9F73197AF01461BA6
:10139000570B0E940208811103C0CE010E94300841
:1013A000CE01DF91CF910895EF92FF920F931F939B
:1013B000CF93DF93EC017B018A01BA010E94DB0726
:1013C000811104C0CE010E94300807C01D830C8328
:1013D000B701888199810E940418CE01DF91CF91D5
:1013E0001F910F91FF90EF900895CF93DF93EC0141
:1013F000FB018617970761F06081718161157105A6
:1014000029F0448155810E94D40902C00E9430080D
:10141000CE01DF91CF910895EF92FF920F931F932A
:10142000CF93DF93CDB7DEB7A1970FB6F894DEBFA9
:101430000FBECDBF7C01CB01BA01F7011182108232
:1014400013821282158214828E010F5F1F4F22E0D9
:1014500044E00E946311009769F0FC0101900020B4
:10146000E9F73197AF01481B590BBC01C7010E9436
:10147000D40903C0C7010E943008A1960FB6F894A2
:10148000DEBF0FBECDBFDF91CF911F910F91FF90B7
:10149000EF900895FC01808191810C949E16FC01CF
:1014A00011821082138212821582148261157105D5
:1014B00051F0FB0101900020E9F73197AF01461B85
:1014C000570B0C94D40908956115710579F0FB014F
:1014D00001900020E9F73197AF01461B570BDC0163
:1014E000ED91FC910280F381E02D099480E090E081
:1014F00008952F923F924F925F926F927F928F92B8
:101500009F92AF92BF92CF92DF92EF92FF920F9392
:101510001F93CF93DF93CDB7DEB7A4970FB6F894A0
:10152000DEBF0FBECDBF6B017C019B01AC010E94F1
:10153000D315882319F06BED71E01AC046015701ED
:10154000E894B7F82FEF3FEF4FE75FE7C501B4012D
:101550000E94D315811111C02FEF3FEF4FE75FE7D6
:10156000C501B4010E94B51318163CF46FED71E08B
:1015700087EF93E00E94640AB6C02FEF3FEF4FE77A
:101580005FE4C701B6010E94CE1518161CF463EE85
:1015900071E0EECF2FEF3FEF4FE75FECC701B601F1
:1015A0000E94B51387FDF3CF20E030E0A901C70109
:1015B000B6010E94B51387FF0DC041E06DE287EFD1
:1015C00093E00E941E06F7FAF094F7F8F09401E019
:1015D00010E002C000E010E02AE037ED43EA5BE3F0
:1015E000C701B6010E9433156B017C010E949F1553
:1015F0002B013C010E94BA139B01AC01C701B6014B
:101600000E9432154B015C0119A27E0181E2E80EB5
:10161000F11CEAA2FBA2C301B2012AE030E040E0E3
:1016200050E00E94D91429013A01605DF7016293EC
:101630007F01232B242B252B71F7BF0187EF93E02C
:101640000E94640A7C010F5F1F4F41E06EE287EF4A
:1016500093E00E941E060E0D1F1D83E0F82E9AE0F7
:10166000292E312C412C512CFA94FF20D9F120E065
:1016700030E040E251E4C501B4010E941B144B016B
:101680005C010E949F159B0140E050E019A26AA0F6
:101690007BA06CA3C32ED42EE52ECA01B901A201F2
:1016A00091010E94D914605DF30162933F012115FD
:1016B00031054105510589F7BF0187EF93E00E948D
:1016C000640A080F191F6CA17C2D8D2D9E2D0E9480
:1016D000BA139B01AC01C501B4010E9432154B0144
:1016E0005C01C2CFC801A4960FB6F894DEBF0FBE4E
:1016F000CDBFDF91CF911F910F91FF90EF90DF90C1
:10170000CF90BF90AF909F908F907F906F905F90A1
:101710004F903F902F9008950F931F93CF93DF9397
:10172000EC010E94640A8C0167E571E0CE010E9421
:10173000640A800F911FDF91CF911F910F9108953F
:10174000CF93DF93CDB7DEB768970FB6F894DEBFBF
:101750000FBECDBF789484B5826084BD84B58160AE
:1017600084BD85B5826085BD85B5816085BD80916C
:101770006E00816080936E001092810080918100E4
:1017800082608093810080918100816080938100DC
:10179000809180008160809380008091B10084609E
:1017A0008093B1008091B00081608093B0008091FF
:1017B0007A00846080937A0080917A0082608093BE
:1017C0007A0080917A00816080937A0080917A001B
:1017D000806880937A001092C1001092B00310923A
:1017E000B1031092B2031092B30310926E031092E1
:1017F0006F03109270031092710368EB7BE080E03E
:1018000090E00E9475088FEC92E09093AF03809374
:10181000AE030E9442082FB7F8948091CB029091BA
:10182000CC02A091CD02B091CE022FBF80936E0367
:1018300090936F03A0937003B093710368E471E019
:101840008091AE039091AF030E94640A6AE070E059
:1018500080E090E00E94750881E0809382030E94FE
:1018600042081092E1031092E0031092DF031092FD
:10187000DE031092DD031092DC038DE991E090937A
:10188000E3038093E2039091D203963108F058C0AD
:101890002DEB30E03093DD032093DC032BE931E0C6
:1018A0003093DF032093DE032CE231E03093E10339
:1018B0002093E00340916800983058F031E09E306A
:1018C00008F430E021E0822F01C0880F3A95EAF752
:1018D00001C084E0842B80936800983038F09E30FB
:1018E00040F0963148F42CE630E008C02DE630E0B8
:1018F00005C02BE630E002C020E030E03093DA0390
:101900002093D903983030F481E001C0880F9A9574
:10191000EAF70EC0292F30E09E3018F42850310924
:1019200002C02E50310981E001C0880F2A95EAF7E4
:101930008093DB038091E2039091E3030197F1F739
:101940008091E0039091E103892B49F1E091EA0154
:10195000F091EB0183E0E63CF80709F1309739F0AC
:10196000A389B4899C918589809589238C938091E2
:10197000E4038E7F8093E4031092E9011092E80162
:1019800086EC93E09093EB018093EA01E091D90318
:10199000F091DA0390818091DB03892B808361E0F1
:1019A00086E00E940C0461E08AE00E940C0461E081
:1019B00085E00E940C0460E08BE00E940C0461E072
:1019C0008DE00E940C041092F2011092F10110922D
:1019D000F0011092EF011092EE0181E08093ED0191
:1019E0001092EC0161E082E10E94DD0361E083E19D
:1019F0000E94DD038091B9008E7F8093B9008091B1
:101A0000B9008D7F8093B90088E48093B80085E4A5
:101A10008093BC001092FC0380910004823018F087
:101A200098E09093FC0390910104992339F0813060
:101A300029F48091FC0384608093FC0362E370E0EE
:101A400080E090E00E94A7046091020487EF93E099
:101A50000E94A50568EE73E080E090E00E94A70474
:101A600060E387EF93E00E9405060BE416E4C801EB
:101A70000197F1F760E387EF93E00E940506C80144
:101A80000197F1F760E387EF93E00E94050683E595
:101A900092E00197F1F760E287EF93E00E9405067C
:101AA0006091FC03606240E087EF93E00E941E06B5
:101AB00084E08093FD0340E06CE087EF93E00E94B8
:101AC0001E060E946A0882E08093FE0340E066E002
:101AD00087EF93E00E941E0640E062E087EF93E00C
:101AE0000E941E068BE39FE10197F1F788E0809347
:101AF000020460E087EF93E00E94A5056AE571E0CB
:101B000087EF93E00E948C0B62E08091EA030E94D1
:101B10000C0480E398EFAFEFBFEF8093EE03909358
:101B2000EF03A093F003B093F1038E01095F1F4F01
:101B3000CC24CA94D12C50E4252E86EC93E00E944C
:101B400041027C01892B09F455C086EC93E00E9488
:101B500059021A8219821C821B821E821D828F8367
:101B60001886F80101900020E9F73197AF01401B7A
:101B7000510BB801CE0101960E94D4098091C00397
:101B80009091C1030097C9F069817A81611571054F
:101B900091F04091C2035091C3032D813E814217C1
:101BA000530748F00E9404188D819E819093C503CD
:101BB0008093C40318C00E949E1689819A819093D5
:101BC000C1038093C0038B819C819093C303809356
:101BD000C2038D819E819093C5038093C4031A82B2
:101BE00019821C821B821E821D82CE0101960E94D8
:101BF0004A0AA3CF60ED77E080E090E00E94A7045E
:101C00000E946A080E94BB08882399F18091EB0327
:101C10008B3029F170F18551823058F56091E503E0
:101C200070E080E090E00E94BA1320E030E040E8ED
:101C300053E40E941B144B015C016091E60370E0C9
:101C400080E090E00E94BC13A50194010E9433152E
:101C50002DEC3CEC4CEC5DE30E941B1407C0609142
:101C6000E50370E080E090E00E94BA132B013C0194
:101C700006C0412C512C30EC632E3FE7732E40926E
:101C8000F9015092FA016092FB017092FC010E94EE
:101C9000BB088823F1F18091EB038B3029F0C8F168
:101CA0008551823058F035C06091E70370E080E0E4
:101CB00090E00E94BA134B015C0131C03090E70301
:101CC000632D6F7770E080E090E00E94BC1320E00D
:101CD00030E040E853E40E941B144B015C0160912A
:101CE000E80370E080E090E00E94BC13A50194013D
:101CF0000E9433152DEC3CEC4CEC5DE30E941B1470
:101D00004B015C0137FE0BC0B7FAB094B7F8B09442
:101D100006C0812C912C20ECA22E2FE7B22E8092AF
:101D2000F5019092F601A092F701B092F801A3019B
:101D30009201C301B2010E94D315811108C0A5010F
:101D40009401C501B4010E94D315882389F066EA85
:101D500071E08FEC92E00E948C0B0E946A0866EAA8
:101D600071E087EF93E00E948C0B0E94A901E5CE01
:101D700069E871E087EF93E00E948C0B6091F901B4
:101D80007091FA018091FB019091FC010E94790A07
:101D900066EC71E087EF93E00E94640A6AEC71E000
:101DA00087EF93E00E948C0B6091F5017091F60132
:101DB0008091F7019091F8010E94790A68ED71E035
:101DC00087EF93E00E94640A69E571E0CE014396D3
:101DD0000E944F0AEDE6F1E08491E3EBF1E0B4906C
:101DE000EFE9F1E0A490AA2099F081110E94B403D8
:101DF000EA2DF0E0EE0FFF1FE058FE4FA591B491E1
:101E00008C91B82291E080E009F490E0E92EF82E60
:101E100086EC93E00E944102892B09F01AC180915F
:101E2000C4039091C503892B09F413C1A090C0038A
:101E3000B090C103F5018081882309F40AC169E6E5
:101E400071E0C5010E94FB17892B09F094C061E085
:101E50008DE00E94DD036BE671E086EC93E00E946A
:101E60008C0B4091F9015091FA016091FB01709146
:101E7000FC01CE0101960E940C0A4091F50150919F
:101E8000F6016091F7017091F801C8010E940C0AF7
:101E90006AE771E0CE010D960E944F0AB801CE01AB
:101EA0000D960E94A80868E871E00E94BB09BE0177
:101EB0006F5F7F4F0E94A80863E971E00E94BB0931
:101EC000BC01CE0143960E94F509CE010D960E94F9
:101ED0004A0AC8010E944A0ACE0101960E944A0A93
:101EE0004F89588D6B897C8986EC93E00E94B107FD
:101EF000EA94EF28A1F520927C0080917A0080641A
:101F000080937A0080917A0086FDFCCFE090780083
:101F100080917900F12CF82AF7FE03C083E0E80EE7
:101F2000F11CF594E794F594E794F092F401E092B3
:101F3000F301B6016E197F098AE00E944804B701D7
:101F400085E00E94480460E070E086E00E9448045A
:101F500064EF71E080E090E00E94A7047AC0E09016
:101F6000F301F090F401B7018AE00E944804B60141
:101F70006E197F0966C065E971E0C5010E94FB1713
:101F8000892B09F066C060E08DE00E94DD0367E9FF
:101F900071E086EC93E00E948C0B63E971E086ECC3
:101FA00093E00E94640A4091F9015091FA01609116
:101FB000FB017091FC01CE0101960E940C0A409138
:101FC000F5015091F6016091F7017091F801C80197
:101FD0000E940C0A6AE771E0CE010D960E944F0A3A
:101FE000B801CE010D960E94A80868E871E00E9431
:101FF000BB09BE016F5F7F4F0E94A80863E971E0D3
:102000000E94BB09BC01CE0143960E94F509CE0196
:102010000D960E944A0AC8010E944A0ACE01019602
:102020000E944A0A4F89588D6B897C8986EC93E01F
:102030000E94B10760E070E08AE00E94480460E01E
:1020400070E085E00E94480460E070E086E00E9455
:102050004804CE0143960E944A0A87CE80EC93E062
:102060000E944A0A8EE291E09093C7038093C603D0
:102070008091EA019091EB01865C934071F4E091CC
:10208000D903F091DA0390818091DB038095892355
:1020900080831092EB011092EA0108951092D2020F
:1020A0001092D10288EE93E0A0E0B0E08093D302DA
:1020B0009093D402A093D502B093D6022AE031E0E7
:1020C0003093D0022093CF0225EC30E03093DC0235
:1020D0002093DB0224EC30E03093DE022093DD021B
:1020E00020EC30E03093E0022093DF0221EC30E07E
:1020F0003093E2022093E10222EC30E03093E402DC
:102100002093E30226EC30E03093E6022093E502D0
:102110001092E8021092E9021092EA021092EB0289
:10212000109272031092730310927403109275034D
:10213000109276031092770310927803109279032D
:1021400010927A0310927B0310927C0310927D030D
:1021500010927E0310927F031092800310928103ED
:102160001092B7031092B6038093B8039093B9030B
:10217000A093BA03B093BB032CE131E03093B503D5
:102180002093B4031092FA031092F90320E431E093
:102190003093F8032093F70327E22093FB0324E115
:1021A0002093FF0324E0209300041092010438E000
:1021B000309302042093EA032BE02093EB03ECEA34
:1021C000F1E0E491E093EC03E8E9F1E0E491E093DD
:1021D000ED0340E85EE360E070E04093F20350936B
:1021E000F3036093F4037093F5031092C903109204
:1021F000C8038093CA039093CB03A093CC03B093FE
:10220000CD038EE291E09093C7038093C6031092B2
:10221000DD031092DC031092DF031092DE031092B4
:10222000E1031092E0031092E3031092E203609145
:10223000E4036E7F6D7F6093E4036695617081E0D7
:10224000682788E00E94DD0361E088E00E940C04BA
:10225000E0EBF1E0E491E093D603ECE9F1E0E49106
:10226000F0E0EE0FFF1FE657FE4F8591949190939B
:10227000D8038093D70360E089E00E940C0480912A
:10228000E40381FD04C061E089E00E94DD0389E090
:102290008093D203E1EBF1E0E491E093D303EDE925
:1022A000F1E0E491F0E0EE0FFF1FE058FE4F859162
:1022B00094919093D5038093D40369E571E080EC09
:1022C00093E00C944F0AEF920F931F93CF93DF93F9
:1022D000E80147FD02C034E001C034E1042E000CE7
:1022E000550B57FF03C0519541955109E32E022F1D
:1022F000242FAE010E948311CE01DF91CF911F9157
:102300000F91EF900895A9E0B0E0E9E8F1E10C94B5
:1023100001156A01122FB02E2BE3201720F0FF24A5
:10232000F394F00E02C02CE3F22E0F2D27E0AE0145
:102330004F5F5F4F0E94DD12BC014981842F89707D
:10234000813031F0E1FC06C0E0FE06C090E205C03D
:102350009DE203C09BE201C090E05E2D507143FFFF
:102360003CC0911102C083E001C084E0811718F4E1
:10237000212F281B01C020E051110BC0F601822F34
:1023800030E2882319F031938150FBCFC20ED11C6B
:1023900020E0992329F0D6019C93F60131966F0134
:1023A000C6010396E2FE0AC03EE4D6013C9341E436
:1023B00011964C93119712963C9306C03EE6F60197
:1023C000308341E641833283FC01322F40E23323E4
:1023D00009F442C041933150FACF42FF44C09111F9
:1023E00002C083E001C084E0811718F4212F281B6C
:1023F00001C020E051110BC0F601822F30E288238A
:1024000019F031938150FBCFC20ED11C20E09923EB
:1024100029F0D6019C93F60131966F01C60103960F
:10242000E2FE0BC039E4D6013C933EE411963C93A6
:10243000119736E412963C9307C039E6F6013083D3
:102440003EE6318336E63283FC01322F40E233230D
:1024500019F041933150FBCFFC01E20FF11D1082C6
:102460008EEF9FEFA6C021E030E0911102C020E086
:1024700030E0161617061CF4FB01319602C0E1E0AD
:10248000F0E02E0F3F1FBB2021F0EB2DF0E0319646
:1024900002C0E0E0F0E02E0F3F1FE12FF0E02E172A
:1024A0003F071CF4121B212F01C020E08E2D8871E4
:1024B00059F4F601822F30E2882319F031938150CC
:1024C000FBCFC20ED11C20E0992329F0D6019C93AA
:1024D000F60131966F0151110BC0F601822F90E386
:1024E000882319F091938150FBCFC20ED11C20E0BC
:1024F0000F2D060F9A81342F307144FF03C09133A2
:1025000009F40150101624F4093018F008E001C055
:1025100001E0AB0177FF02C040E050E0FB01E41BAB
:10252000F50BA1E0B0E0AC0FBD1FEA0FFB1F8EE280
:10253000A82E4B01801A91080B2D10E011950195E2
:1025400011094F3FBFEF5B0721F4D601AC92119602
:102550006D01641775072CF08416950614F48181BB
:1025600001C080E3415051093196D60111967D0199
:102570004017510724F0D6018C936701E2CF64170E
:10258000750739F4963320F4953319F4311101C0ED
:1025900081E3F6018083F701822F90E2882319F00E
:1025A00091938150FBCFF701E20FF11D108280E083
:1025B00090E02996ECE00C941D15283008F027E0F7
:1025C0003327DA01990F311D87FD9160009661056F
:1025D000710539F432602E5F3D9330E32A95E1F7BF
:1025E00008959F3F30F080387105610509F03C5F28
:1025F0003C5F3D93913008F08068911DDF93CF934D
:102600001F930F93FF92EF92192F987F9695E92FC2
:1026100096959695E90FFF27EE53FF4F992733279D
:10262000EE24FF24A701E70105900894079428F4FD
:10263000360FE71EF81E491F511D660F771F881FB2
:10264000991F0694A1F70590079428F4E70EF81E49
:10265000491F561FC11D770F881F991F661F0694BB
:10266000A1F70590079428F4F80E491F561FC71FBD
:10267000D11D880F991F661F771F0694A1F705903B
:10268000079420F4490F561FC71FD81F990F661FC4
:10269000771F881F0694A9F784911095177041F051
:1026A000D695C79557954795F794E7941A95C1F72E
:1026B000E8E6F0E068941590159135916591959153
:1026C00005907FE27395E118F10A430B560BC90B95
:1026D000D009C0F7E10CF11E431F561FC91FD01DC2
:1026E0007EF4703311F48A95E6CFE894015030F00F
:1026F000080F0AF40027021708F4202F2395022F51
:102700007A3328F079E37D932A95E9F710C07D9319
:102710002A9589F606949795679537951795179496
:10272000E118F10A430B560BC90BD00998F0239519
:102730007E9173957A3308F070E37C932013B8F799
:102740007E9170617D9330F0839571E37D9370E3AA
:102750002A95E1F71124EF90FF900F911F91CF91EF
:10276000DF91992787FD909508950E94F71308F44B
:1027700081E00895E89409C097FB3EF49095809518
:10278000709561957F4F8F4F9F4F9923A9F0F92F37
:1027900096E9BB279395F695879577956795B795B5
:1027A000F111F8CFFAF4BB0F11F460FF1BC06F5F9B
:1027B0007F4F8F4F9F4F16C0882311F096E911C0AD
:1027C000772321F09EE8872F762F05C0662371F0CE
:1027D00096E8862F70E060E02AF09A95660F771FE2
:1027E000881FDAF7880F9695879597F90895990FBE
:1027F0000008550FAA0BE0E8FEEF16161706E807CB
:10280000F907C0F012161306E407F50798F0621BEB
:10281000730B840B950B39F40A2661F0232B242BC0
:10282000252B21F408950A2609F4A140A6958FEFDF
:10283000811D811D08950E942E140C949F140E94E6
:10284000911438F00E94981420F0952311F00C9404
:1028500088140C948E1411240C94D3140E94B01478
:1028600070F3959FC1F3950F50E0551F629FF001E3
:10287000729FBB27F00DB11D639FAA27F00DB11DFC
:10288000AA1F649F6627B00DA11D661F829F222785
:10289000B00DA11D621F739FB00DA11D621F839F0C
:1028A000A00D611D221F749F3327A00D611D231FE2
:1028B000849F600D211D822F762F6A2F11249F5730
:1028C00050409AF0F1F088234AF0EE0FFF1FBB1F33
:1028D000661F771F881F91505040A9F79E3F5105F2
:1028E00080F00C9488140C94D3145F3FE4F3983E6A
:1028F000D4F3869577956795B795F795E7959F5F9C
:10290000C1F7FE2B880F911D9695879597F908952D
:1029100097F99F6780E870E060E008959FEF80EC92
:10292000089500240A941616170618060906089535
:1029300000240A9412161306140605060895092E9B
:102940000394000C11F4882352F0BB0F40F4BF2B0A
:1029500011F460FF04C06F5F7F4F8F4F9F4F08954A
:1029600057FD9058440F551F59F05F3F71F0479540
:10297000880F97FB991F61F09F3F79F08795089525
:10298000121613061406551FF2CF4695F1DF08C044
:10299000161617061806991FF1CF86957105610561
:1029A00008940895E894BB2766277727CB0197F909
:1029B0000895A1E21A2EAA1BBB1BFD010DC0AA1F80
:1029C000BB1FEE1FFF1FA217B307E407F50720F098
:1029D000A21BB30BE40BF50B661F771F881F991F13
:1029E0001A9469F760957095809590959B01AC015C
:1029F000BD01CF0108952F923F924F925F926F9247
:102A00007F928F929F92AF92BF92CF92DF92EF927E
:102A1000FF920F931F93CF93DF93CDB7DEB7CA1BFF
:102A2000DB0B0FB6F894DEBF0FBECDBF09942A882A
:102A3000398848885F846E847D848C849B84AA84D2
:102A4000B984C884DF80EE80FD800C811B81AA815F
:102A5000B981CE0FD11D0FB6F894DEBF0FBECDBF2A
:102A6000ED0108955058BB27AA270E944A150C94DF
:102A70009F140E94911438F00E94981420F039F4A9
:102A80009F3F19F426F40C948E140EF4E095E7FBA6
:102A90000C948814E92F0E94B01458F3BA176207F7
:102AA00073078407950720F079F4A6F50C94D214E7
:102AB0000EF4E0950B2EBA2FA02D0B01B901900159
:102AC0000C01CA01A0011124FF27591B99F0593F9D
:102AD00050F4503E68F11A16F040A22F232F342FE5
:102AE0004427585FF3CF469537952795A795F04033
:102AF0005395C9F77EF41F16BA0B620B730B840B48
:102B0000BAF09150A1F0FF0FBB1F661F771F881FFF
:102B1000C2F70EC0BA0F621F731F841F48F4879557
:102B200077956795B795F7959E3F08F0B0CF939549
:102B3000880F08F09927EE0F9795879508950E94C2
:102B4000B81488F09F5798F0B92F9927B751B0F073
:102B5000E1F0660F771F881F991F1AF0BA95C9F721
:102B600014C0B13091F00E94D214B1E008950C94D9
:102B7000D214672F782F8827B85F39F0B93FCCF38C
:102B8000869577956795B395D9F73EF4909580959E
:102B9000709561957F4F8F4F9F4F08950E94F71357
:102BA00008F48FEF08950E94F713880B990B08958E
:102BB00097FB072E16F4009407D077FD09D00E94EA
:102BC000EC1507FC05D03EF4909581959F4F089534
:102BD000709561957F4F0895AA1BBB1B51E107C0FB
:102BE000AA1FBB1FA617B70710F0A61BB70B881F9D
:102BF000991F5A95A9F780959095BC01CD0108952C
:102C0000EE0FFF1F0590F491E02D09940F931F9391
:102C1000CF93DF938230910510F482E090E0E09151
:102C20000504F091060420E030E0A0E0B0E0309729
:102C300019F1408151810281138148175907C8F069
:102C40008417950769F4109731F012960C93129738
:102C500013961C9327C0009305041093060422C00A
:102C60002115310519F04217530718F49A01BD01D7
:102C7000EF01DF01F801DBCF21153105F9F0281B49
:102C8000390B2430310580F48A819B8161157105EF
:102C900021F0FB019383828304C090930604809308
:102CA0000504FE01329644C0FE01E20FF31F81933A
:102CB000919322503109398328833AC0209103042B
:102CC00030910404232B41F420910201309103013F
:102CD00030930404209303042091000130910101FA
:102CE0002115310541F42DB73EB7409104015091B3
:102CF0000501241B350BE0910304F0910404E21755
:102D0000F307A0F42E1B3F0B2817390778F0AC010E
:102D10004E5F5F4F2417350748F04E0F5F1F5093EB
:102D20000404409303048193919302C0E0E0F0E037
:102D3000CF01DF91CF911F910F910895CF93DF9332
:102D4000009709F481C0FC01329713821282A0918E
:102D50000504B0910604109781F420813181820F1F
:102D6000931F20910304309104042817390751F56B
:102D7000F0930404E093030467C0ED0120E030E029
:102D8000CE17DF0740F44A815B819E014115510552
:102D9000F1F0EA01F5CFD383C28340815181840FE2
:102DA000951FC817D90759F488819981840F951FF9
:102DB0000296918380838A819B81938382832115EC
:102DC000310529F4F0930604E09305043DC0E901C0
:102DD000FB83EA8349915991C40FD51FEC17FD0776
:102DE00061F480819181840F951F0296E901998396
:102DF0008883828193819B838A83E0E0F0E012964E
:102E00008D919C911397009719F0FD01DC01F7CF8C
:102E10008D919C9111979D012E5F3F4F820F931FC3
:102E200020910304309104042817390769F430977E
:102E300029F4109206041092050402C01382128233
:102E4000B0930404A0930304DF91CF910895A0E010
:102E5000B0E0EDE2F7E10C94FF14EC01009721F4EF
:102E6000CB010E940616B4C0FC01E60FF71F9C01BF
:102E700022503109E217F30708F4A8C0D9010D91D7
:102E80001C91119706171707B0F00530110508F4CB
:102E90009BC0C80104978617970708F495C0025095
:102EA0001109061B170B019311936D937C93CF01AE
:102EB0000E949E1689C05B01A01AB10A4C01800EC7
:102EC000911EA0910504B0910604612C712CE12C97
:102ED000F12C109709F446C08D919C911197A8157B
:102EE000B905B1F56C0142E0C40ED11CCA14DB0473
:102EF00078F14C018A189B08640142E0C40ED11C91
:102F00001296BC9012971396AC91B5E0CB16D104F3
:102F100040F0B282A38391828082D9016D937C9329
:102F200009C00E5F1F4F800F911FF90191838083AD
:102F3000EB2DFA2FE114F10431F0D7011396FC9335
:102F4000EE93129741C0F0930604E09305043CC051
:102F50006816790608F43C017D0112960D90BC912B
:102F6000A02DB7CF80910304909104048816990690
:102F7000E1F466167706C8F4809100019091010192
:102F8000009741F48DB79EB740910401509105011F
:102F9000841B950BE817F907C8F4F0930404E09339
:102FA0000304F901718360830FC0CB010E940616F0
:102FB0007C01009759F0A801BE010E94F217CE01D2
:102FC0000E949E16C70104C0CE0102C080E090E0BE
:102FD000CDB7DEB7EEE00C941B1581E090E0F894DD
:102FE0000C940B18FB01DC0102C001900D924150C2
:102FF0005040D8F70895FB01DC018D9101908019B4
:103000000110D9F3990B0895FB01DC0101900D9299
:103010000020E1F7089510E0CFEDD0E004C0FE01FC
:103020000E9400162196C03ED107C9F7F894FFCF41
:10303000000007048000000000004503B1076C0198
:1030400092039D017B018F0100000000EF02C2028C
:103050001E03F001BA02AB029D0200000000F10164
:10306000B1071E03F00141025902D801000000001F
:103070003506B1071E03B007564D4450565F317CEC
:10308000315F564D4450560D0A00496E7469616CAB
:10309000697A696E672E2E2E00310053697374654C
:1030A0006D612061636365736F0054656D70657257
:1030B0006174757261203A0020556D6964697461AC
:1030C0003A20003B00300053697374656D612073D2
:1030D00070656E746F004661696C656420746F2062
:1030E000726561642066726F6D2044485420736578
:1030F0006E736F7221002025200054656D7065721B
:1031000061747572613A20002043006E616E00693F
:083110006E66006F7666000098
:107E0000112484B714BE81FFF0D085E080938100F7
:107E100082E08093C00088E18093C10086E0809377
:107E2000C20080E18093C4008EE0C9D0259A86E02C
:107E300020E33CEF91E0309385002093840096BBD3
:107E4000B09BFECF1D9AA8958150A9F7CC24DD24C4
:107E500088248394B5E0AB2EA1E19A2EF3E0BF2EE7
:107E6000A2D0813461F49FD0082FAFD0023811F036
:107E7000013811F484E001C083E08DD089C08234E0
:107E800011F484E103C0853419F485E0A6D080C0E4
:107E9000853579F488D0E82EFF2485D0082F10E0AE
:107EA000102F00270E291F29000F111F8ED06801E7
:107EB0006FC0863521F484E090D080E0DECF843638
:107EC00009F040C070D06FD0082F6DD080E0C81688
:107ED00080E7D80618F4F601B7BEE895C0E0D1E017
:107EE00062D089930C17E1F7F0E0CF16F0E7DF06D8
:107EF00018F0F601B7BEE89568D007B600FCFDCFD4
:107F0000A601A0E0B1E02C9130E011968C91119780
:107F100090E0982F8827822B932B1296FA010C0160
:107F200087BEE89511244E5F5F4FF1E0A038BF0790
:107F300051F7F601A7BEE89507B600FCFDCF97BE46
:107F4000E89526C08437B1F42ED02DD0F82E2BD052
:107F50003CD0F601EF2C8F010F5F1F4F84911BD097
:107F6000EA94F801C1F70894C11CD11CFA94CF0C13
:107F7000D11C0EC0853739F428D08EE10CD085E9AC
:107F80000AD08FE07ACF813511F488E018D01DD067
:107F900080E101D065CF982F8091C00085FFFCCF94
:107FA0009093C60008958091C00087FFFCCF809118
:107FB000C00084FD01C0A8958091C6000895E0E648
:107FC000F0E098E1908380830895EDDF803219F02E
:107FD00088E0F5DFFFCF84E1DECF1F93182FE3DFCA
:107FE0001150E9F7F2DF1F91089580E0E8DFEE27F6
:047FF000FF270994CA
:027FFE00040479
:0400000300007E007B
:00000001FF